:020000000F28C7
:10000800FF0003088312EB000408EC000A08ED0067
:100018007E08EE00C12D4030840051301A2083172D
:10002800703084007E301A20830122286400800109
:10003800840A04060319003404061B28703083164A
:100048008F008512831285168316811315151F11CB
:10005800051583121A30D300F830D200D20B32289B
:10006800D30B3228640083128B100B168B17DD25F7
:10007800D1258312051941284228F1281130AC25D1
:10008800E221831285128424A130AC2564308312C6
:10009800720203185028512854282230AC255628BB
:1000A800CF30AC2583127008D200D3015208D50096
:1000B8005308D6006430822583127208D200D30117
:1000C8005208D5005308D6008B3082258312400889
:1000D800D200D3015208D5005308D60096308225A5
:1000E80083127708D200D3015208D5005308D600EE
:1000F800B430822583127808D200D3015208D50083
:100108005308D600AB30822583127A08D200D30177
:100118005208D5005308D600C630822583127308CA
:10012800D200D3015208D5005308D6007130822579
:1001380083127408D200D3015208D5005308D600A0
:100148003030822583127108D200D3015208D500BD
:100158005308D6004A30822583127B08D200D30187
:100168005208D5005308D6007E30822583127C08B9
:10017800D200D3015208D5005308D6005730822543
:1001880083127508D200D3015208D5005308D6004F
:100198003D30822503108312003003180130D1004E
:1001A800EA2851088313413E84000008D20052080F
:1001B800D7005108D300D4015308D5005408D600FD
:1001C8006B2501308312D2005208D1077008510202
:1001D800031CEF28F028D528851685120A248312D7
:0A01E800851663006623F5280F2832
:10020000FE00FE1F082983137E18831700080800CC
:100210000408FE0001308A007E0882070034303472
:10022000313432343334343435343634373438348A
:100230003934413442344334443445344634493407
:100240007234203463346134743463346834203459
:10025000723465346134643479342E340A340034B1
:100260004B346134643465346E3420346B34793407
:100270006F346B34613469340A3400345334693474
:1002800067346E3461346C342034483420346D3437
:1002900069346E3400345334693467346E346134F5
:1002A0006C3420344C342034613476346734003478
:1002B0005334693467346E3461346C3420344834D8
:1002C000203461347634673400345334693467340D
:1002D0006E3461346C3420344C3420346D346934E1
:1002E0006E3400345334693467346E3461346C34A2
:1002F000203463346F3475346E34743400345334C2
:10030000693467346E3461346C34203448342034BA
:100310006D346134783400345334693467346E3466
:1003200061346C3420344C3420346D34613478348E
:1003300000344C34653461346434653472342034B0
:1003400048342F34383400344C34653461346434E8
:100350006534723420344C342F343834003446340D
:100360006F3472346D346134743420343D3420344D
:1003700000345434653472346E3420346D3469344E
:100380006E3400345434653472346E3420346D3439
:10039000613478340034443461347434613420344A
:1003A0004E346F342E3400345434653472346E3429
:1003B000203461347634673400344E344534433469
:1003C0000A34003403108312003003180130F700A0
:1003D000F801F8030310003003180130F300F401B2
:1003E000F4030310003003180130FB00FC01FC0390
:1003F0000630831681000310831200300318013089
:1004000081000B2A051C052A062A0B2A031000303E
:1004100003180130810028300102031C102A112A20
:10042000022A122A051C152A162A122A0108D800A7
:100430005808F20003100030031801308100202A10
:100440000518232A242A202A0108D8005808C000A9
:10045000033083168100031083120030031801302B
:10046000D600322A0310003003180130D500382A94
:10047000031000300318013081003E2A051C412A78
:10048000422A3E2A0108D8005808FA00031000301A
:100490000318013081007A0877020318502A512A84
:1004A000562A7A08D8005808F700602A78087A0295
:1004B00003185B2A5C2A602A7A08D8005808F800DA
:1004C000612A051C642A652A6B2AF0300102031C8C
:1004D0006A2A6B2A612A0108D700F0305702031CF0
:1004E000722A732A742AB92A56088313413E84005B
:1004F0000310800D65305702031C7F2A802A9A2A38
:100500005608413E84000014570873020318892AD4
:100510008A2A8F2A5708D8005808F300992A7408A5
:1005200057020318942A952A992A5708D800580880
:10053000F400AF2A57087B0203189F2AA02AA52A95
:100540005708D8005808FB00AF2A7C085702031848
:10055000AA2AAB2AAF2A5708D8005808FC00013055
:10056000D8005808D50708305502031CB82AB92A04
:10057000382AF0305702031CBE2ABF2AC02ACA2AD2
:100580000130D8005808D60710305602031CC92A7B
:10059000CA2A322A56088313D8005808F000770870
:1005A000D80001300310D80CFF3E031DD22A780872
:1005B000D9000310590C5807DB005B08FA007308D8
:1005C000D80001300310D80CFF3E031DE22A740846
:1005D000D9000310590C5807DB005B08F1007B08B9
:1005E000D80001300310D80CFF3E031DF22A7C080E
:1005F000D9000310590C5807DB005B08F500080010
:100600000310003003180130DC00062B2030E2001C
:100610005C0883135D3E8400620880000130E200C4
:100620006208DC0705305C02031C172B182B062B15
:100630000430DC000A30E5000030E6005908E30130
:10064000E3075A08E401E407BD2483126308303E3F
:10065000E2005C0883135D3E8400620880000A307B
:10066000E5000030E6005908E301E3075A08E40119
:10067000E407C02383126308D901D9076408DA01AB
:10068000DA070130DC025A085904031D482B492BB4
:100690001A2B5B088313053CDC0005305C02031C4D
:1006A000522B532B542B652B5C0883135D3E840027
:1006B0000008252501308312E2006208DC070530BE
:1006C0005C02031C642B652B542B08000630831638
:1006D0008100831272084B246D2B831240080102A3
:1006E000031C732B742B6D2B0330831681000310B6
:1006F0008312003003180130D600B72B03100030EE
:1007000003180130D500842B7A084B248312560835
:100710008313413E84008030D700550A912B03108B
:10072000D70CFF3E031D8F2B570800050319992B8B
:100730009A2BA22B9B2B71080102031CA02BA12B2F
:100740009B2BA92BA32B75080102031CA82BA92BFB
:10075000A32B0130D7005708D50708305502031CDA
:10076000B22BB32B842B0130D7005708D607700863
:100770005602031CBC2BBD2B7E2B7A084B24080091
:100780000030E8000030E900660865040319C92B51
:10079000CA2B022CE7010314E70DD92B01300310FB
:1007A000E50DE60DFF3E031DCF2B0130EA006A0880
:1007B000E707E61FDC2BDD2BCE2B01300310E80D05
:1007C000E90DFF3E031DDE2B66086402031DEA2BC4
:1007D00065086302031CED2BEE2BF52B6508E30285
:1007E0006608031CE403E402681401300310E60CFD
:1007F000E50CFF3E031DF62B0130E702031D012C23
:10080000022CDD2B6808E301E3076908E401E40733
:10081000092C0800003052258312D6005608F0003B
:10082000013052258312D6005608F20002305225BC
:100830008312D6005608C000033052258312D6001A
:100840005608FA00043052258312D6005608F100EB
:10085000053052258312D6005608F50003100030EB
:1008600003180130D500442C55088313063E522549
:100870008312D60055088313413E84005608800039
:100880000130D6005608D50770085502031C492CC4
:100890004A2C342C0800D800031000300318013013
:1008A0008100762C0516643072020318582C592CDE
:1008B0005F2C0530D900D90B5B2C6400642C02300E
:1008C000D900D90B612C642C83120512643072029A
:1008D00003186B2C6C2C712C0230D900D90B6E2CA8
:1008E000762C0530D900D90B732C6400831258087C
:1008F00083130102031C7D2C7E2C522C031000302C
:1009000003180130810008007008D7000030F5247A
:1009100083127208D7000130F52483124008D700F3
:100920000230F52483127A08D7000330F5248312AD
:100930007108D7000430F52483127508D7000530FC
:10094000F52403108312003003180130D500B62CB3
:1009500055088313413E84000008D7005508063E21
:10096000F52401308312D6005608D50770085502C9
:10097000031CBB2CBC2CA82C0800660865040319BA
:10098000C22CC32CF32CE7010314E70DD22C013049
:100990000310E50DE60DFF3E031DC82C0130E800F5
:1009A0006808E707E61FD52CD62CC72C660864021A
:1009B000031DDC2C65086302031CDF2CE02CE62CF5
:1009C0006508E3026608031CE403E4020130031037
:1009D000E60CE50CFF3E031DE72C0130E702031D8A
:1009E000F22CF32CD62CF42C0800D800F82CF82C80
:1009F00083169C18FC2CFD2CF72C831258088313AB
:100A000083169B008312570883169A007F30831247
:100A1000D90083168312590883169C05831203108C
:100A20008B1F132D142D152D03148B1383161C15DA
:100A300055309D00AA309D009C141C118312031C8C
:100A4000222D232D242D8B1708008312E3007D1007
:100A500063088313E4006408F6000B30E4006408C4
:100A6000F900322DCE300E02031C372D382D322DD9
:100A70007D183B2D3E2D83128514402D8312851049
:100A800003100030031801308E007D10761C492DB4
:100A90007D140314F60C0130F902031D502D512D65
:100AA000312D0800D700552D552D83169C18592D32
:100AB0005A2D542D83125708831383169B007F30C1
:100AC0008312D80083168312580883169C051C14C1
:100AD0001A086A2D0800BD30AC2502308312D800F8
:100AE0005808DB005508D901D9075608DA01DA079A
:100AF00000233D30252583125708831397250A309C
:100B000025250800D70057088313AC253D3025253F
:100B100003308312D8005808DB005508D901D907E3
:100B20005608DA01DA0700230A3025250800D90023
:100B30005908DA0004300310DA0CFF3E031D9B2D28
:100B40005A08013E092125258312590883130F39BC
:100B5000013E0921252508008312D900B72D590827
:100B60000921252501308312DA005A08D90783129A
:100B70005908831309210038031DBF2DC02DAF2D47
:100B800008008B1CC42DC52DC62D8B106E08FE00D1
:100B90006D088A006C0884006B088300FF0E7F0ECE
:100BA00009003130831290000730990083169F109E
:100BB0008312851483168510080007309900831668
:100BC0001F109F111510051405128312051208003D
:084000000F0006000800030098
:02400E00C430BC
:00000001FF
