:020000040000fa
:080000000002040000000000f2
:020000040000fa
:100400002f182200007f2200000188000000000059
:100410000c000700602422000100200011000700ea
:10042000000020000000e000020032000000020096
:100430000000000080210200000000000040da00ff
:100440000000fe004440a900806820000000e00099
:100450000300320000002000a00188004440a800f2
:100460000000060091018800800078000000eb0089
:1004700015003700e280400032a0b4009101ba00bc
:10048000e280400032a0b4009102ba00e280400055
:1004900032a0b4000002eb00472bde00f507b200eb
:1004a000602ce10004003a000059eb008301e900f0
:1004b000fdff3e00040037006128e100010032002a
:1004c0000082eb00040007001101ba000200e00006
:1004d000e8ff3a00000006003159ba008301e90044
:1004e0000c0032002159ba008301e90008003200f3
:1004f0000400e00003003a00e280400032a0b400b3
:10050000f5ff370011d9ba008301e900faff3a007c
:100510008100e800e180400032a0b4000000060045
:100520000000000000000000881f7800020478002e
:1005300036000700080040004f0478000000060065
:100540000000fa00881f7800000478003fb9970087
:10055000ea8157008000780040292000320007001f
:10056000800078000000e000020035000040eb0051
:1005700000f47800010078004f0478000080fa0051
:1005800000000600889fbe000004be00f009810044
:100590000000e00001003200000001000800e0005f
:1005a00001003a00e80981000800be00d7000700fa
:1005b000000444001804e00004003a000014220083
:1005c000e00989000004eb00070037000800be00c6
:1005d000e0000700000044001004e00001003200c9
:1005e0000058eb00e0098900080078004f04be00c5
:1005f000000006000002b10003003500e005b10074
:1006000001003c0010000500000005008001eb0027
:100610000200370061f079008301e800828f510009
:10062000fcff3a00000006006200fa00889fbe004e
:100630008a9fbe000004be00020578008300780097
:1006400060f92f000f004000d400070088979f003a
:1006500099979f000000eb00a09f9f009a457800ab
:100660000b80fb000000ea00cf04de0050c2b300a4
:1006700080cf5500020032000904780001003700e5
:100680000904e9000800e0000b0034001f90970007
:10069000080178008a0078008f919700030001001c
:1006a00090979f000000e000930032002f98970081
:1006b00000004400a09f9f000905450050c2b30000
:1006c00080cf5500040032000b04e000e3ff3a0045
:1006d0002f989700890037000000eb00809f9f0053
:1006e000f0979f00e0979f00d0979f00c0979f00d2
:1006f000b0979f00c09f9f0009003700e0122200c2
:10070000008050000000400021122200e10078002b
:100710004f98970001007000c09f9f000a05e800f5
:100720001a4478008800fb00e0122200a0000700b5
:10073000800078000000e000f0ff3a00a0c2b300a3
:10074000804f54000e003a00bf8897000180e900f6
:10075000b08f9f0010007800b09f9f000000e00065
:1007600005003d000000ea00b09f9f004f989700f1
:100770000020a000c09f9f000a05e800100037007d
:10078000b19f9f0009003700bf989700f0ff270036
:10079000808f5000040032006a08b9000000410058
:1007a00003004000b09f9f000a05e8001a01fb000b
:1007b00003fd2f0003004100e90f5000f2ff360057
:1007c000e0c2b3009a4f1000040032000080eb003a
:1007d000909f9f008a0478001c0037008a04e8007c
:1007e000a0c2b300994f100007003a00bf889700dd
:1007f0000180e900b08f9f0010007800909f9f005b
:100800008a84e800110037000000eb00909f9f00f1
:10081000090037009f989700f0ff2700808f500055
:10082000040032006a08b9000000410003004000e3
:10083000909f9f008904e8001901fb0003fd2f0031
:1008400003004100e90f5000f2ff36001944780020
:100850008800fb0040132200550007000000e00064
:1008600002003a0000447800010037008904e800e3
:10087000a87f9f0080c6b300804f540004003a0058
:10088000994f14000a003a006640500006003700f5
:10089000c0c6b300804f540005003a00994f1400c1
:1008a00003003a0065404000a07f9f008904e800f3
:1008b0000905e800cbfb2f008f8545001901fb00df
:1008c00060f92f000f0040000084e8008b017800e1
:1008d00080007800080078003e0007000000e0007b
:1008e00005003a008b007800080078007c010700c2
:1008f0000000e00059ff3d000080eb004f05be0006
:100900004f04be000080fa000000060000027800dc
:100910000b00370001017800924178000304e000e9
:1009200002003a00040050000000060083cf52008d
:10093000020032000201e800f7ff37000000e80083
:10094000904278000504e000f2ff3a0004005000f5
:1009500000000600000278000700370083cf520035
:100960000a0032000201e800924178000304e0002e
:10097000faff3a000000e800904278000504e00029
:100980000400320001017800f7ff37000400500036
:100990000000060004005000000006000200fa00fb
:1009a000f1bf9f00010878000080fa0000000600f7
:1009b000040037000204e00001003a0000000500d6
:1009c0000000e80010417800814f5100f9ff3a0023
:1009d00000000600889fbe008a1f7800000478008f
:1009e000010278008244780003057800e0c6b30075
:1009f000804f5100d200320015003c006b40500087
:100a0000804f5100240032000a003c00704050002a
:100a1000804f51000f01320065404000804f51006f
:100a20007400320050c2b300804f510020013a00e0
:100a30001c01370040c6b300804f51001b0032003c
:100a400065404000804f510019013a0017003700ff
:100a500030c7b300804f5100fe00320007003c0059
:100a600064405000804f5100620032000040e800b6
:100a7000804f51000e013a00e700370050c7b30025
:100a8000804f51005b00320063404000804f5100b6
:100a900007013a00570037009180e900010a780009
:100aa000780090009171780007013700a8609000ed
:100ab000c0c6b30080cf50000a003a00940078000e
:100ac00064805000000a78001000be004f89de00ec
:100ad000cf91de000002be0002037800820378009e
:100ae0001300370010c7b30080cf5000030032005e
:100af000a0c6b30080cf500006003a0094007800f2
:100b000068805000000a78003002be002003be005a
:100b1000070037001480e900000a78001000780010
:100b200000027800cfa2de0005037800860378007b
:100b3000049cbe000694be00a860900080c6b3006e
:100b400080cf50000e00320020c6b30080cf50008e
:100b500005003a000400fb00cf80de0001017800b0
:100b6000820178000a00370040c7b30080cf5000f0
:100b7000030032006640400080cf500006003a007b
:100b800004007800cf80de00010178008201780047
:100b9000009cbe000294be003800be002801be00ca
:100ba000e00f5000e08f5800e00f5900e08f59002f
:100bb00003003d0078009000d1c2b3000a00370066
:100bc000081090000018a300030032007800900085
:100bd000b1c2b300040037000008a3005300320084
:100be0007800900001c2b300017578000000e800b1
:100bf0004d003700a8609000c0c6b30080cf500001
:100c000006003a009400780064805000000a7800e2
:100c10001002be006033b8001300370010c7b300e5
:100c200080cf500003003200a0c6b30080cf500038
:100c300006003a009400780068805000000a7800ae
:100c40003002be002003be00070037001480e90018
:100c5000000a7800100078000002780005002000eb
:100c60000600200007002000049cbe000694be0081
:100c7000a860900080c6b30080cf50000e00320004
:100c800020c6b30080cf500005003a000480fb006e
:100c90000100200002002000030020000a003700ad
:100ca00040c7b30080cf50000300320066404000d0
:100cb00080cf500006003a000400780001002000b8
:100cc0000200200003002000009cbe000294be0031
:100cd000081090000038a300140032003800be0055
:100ce0002801be00e00f5000e08f5800e00f5900cf
:100cf000e08f59000d00320080c7b30080cf540050
:100d00000300320080c5b30080cf540007003a00d2
:100d10007800900001c3b300017578008000e800fe
:100d200009f578000080e8007004980078009000d1
:100d300000004500600498008940780042003700b8
:100d4000a8609000c0c6b30080cf500025003200dc
:100d50000a003c006440500080cf50002800320060
:100d600000c0e80080cf50001400320068405000fe
:100d700080cf500022003a000a00370040c7b3007d
:100d800080cf50001e0032006640400080cf5000ef
:100d90001b0032006940500080cf500018003a001c
:100da000060037001480e900000a7800100078007f
:100db000485c900008487800450037001480e9003e
:100dc000000a78001002780068089000cf80de00ea
:100dd0000101780082017800009abe000292be00f4
:100de0003b0037001480e900000a78001001780009
:100df00068089000cf80de000089be003400370014
:100e00001480e900000a780010007800680c900057
:100e1000080878002e0037001180e900800878006b
:100e200010007800cf80de00010178008201780098
:100e3000009cbe000294be007800900000004500b7
:100e40006004980081c7b30008007800ee00070036
:100e50001f0037001480e900000a780010007800b5
:100e600060049800580990000200e00002003d0074
:100e700072020700090037008000eb0076020700cd
:100e8000800078000000e00003003200680090005d
:100e9000008050000100370058089000100c9800a6
:100ea0000b003700780090000275780006003700cc
:100eb00078009000800045000904e00001003a003d
:100ec00059c2b300894878000000e8007004980017
:100ed0000000eb004f0578004f04be000000060044
:100ee0000400fa00889fbe008a9fbe008c1f780015
:100ef000000478000106780070089000f800900067
:100f000001005000880890000100500098089000ef
:100f100001005000a808900001005000b80890009f
:100f200001005000c8089000810550000002220016
:100f300090bf9f0000032300a0bf9f0008109000f7
:100f40000028a30018003a000b00e000160034004f
:100f50008b04780009057800e28f54000200360007
:100f60002a002000020037000900e0000b003400d6
:100f700058009000c80190000a017800ee805700e8
:100f800003000100500498000000e00096003200c9
:100f90006808900000004500600c98008a845400a6
:100fa0004240a900ebff3c00780190000200e00005
:100fb0000b00340058009000c80190008c007800ad
:100fc00003000100500498000000e0008600320099
:100fd00068089000f800900001004000600c980044
:100fe000880c90000900e000150034000905780025
:100ff000e28f5400020036002a0020000200370071
:101000000900e0000b00340058009000c801900077
:101010000a017800ec80570003000100500498009a
:101020000000e000700032006808900000004500f9
:10103000600c98008a8454004240a900ebff3c00f9
:10104000180990000200e0000b003400e800900056
:1010500058009000c801900003000100500498005f
:101060000000e000600032006808900098089000de
:1010700001004000600c9800a80c90000900e000fe
:101080001500340009057800e28f54000200360094
:101090002a002000020037000900e0000b003400a5
:1010a00058009000c80190000a017800ec805700b9
:1010b00003000100500498000000e0004a003200e4
:1010c0006808900000004500600c98008a84540075
:1010d0004240a900ebff3c00380990000200e0000c
:1010e0000d003400e8009000180890008080400057
:1010f00058009000c80190000300010050049800bf
:101100000000e0003800320068089000b808900045
:1011100001004000600c9800c80c90000900e0003d
:101120001500340009057800e28f540002003600f3
:101130002a002000020037000900e0000b00340004
:1011400058009000c80190000a017800ec80570018
:1011500003000100500498000000e000220032006b
:101160006808900000004500600c98008a845400d4
:101170004240a900ebff3c00081090000028a300ab
:101180001b0032000b00e000190034008b047800d3
:1011900009057800e28f5400020036002a00200082
:1011a000020037000900e0000b00340058009000f6
:1011b000c80190000a017800ee805700030001008a
:1011c000500498000000e00007003200680890001a
:1011d00000004500600c98008a8454004240a90039
:1011e00003003400eaff37000080eb000100370005
:1011f0000000eb004f0678004f05be004f04be0014
:101200000080fa00000006002f03b000889fbe0097
:101210008a9fbe008c9fbe008e1f7800000778005a
:1012200010112200c0b79f0080c5b30080cf5000ce
:101230000800320002102200c2b79f007740400031
:1012400080cf500003003a0083002000b3b79f0016
:101250000a00370080c7b30080cf5000050032007d
:10126000a4002000b4b79f0080c5b30080cf500019
:1012700002003a0005012000b5b79f003e04be0001
:101280002e05be0040c6b30080cf500003003200e0
:101290006540400080cf50000b003a00e00f540042
:1012a000e08f5c00e00f5d00e08f5d0006003d0018
:1012b0006000b8006011b80008045000898458002c
:1012c0000a0559008b8559003fb19700e80f51007e
:1012d00003003200f00f510045003a0002003700d1
:1012e0003c002000010037004c002000e00f5400bb
:1012f000e08f5c00e00f5d00e08f5d0005003a00cc
:101300005e08900083012000a3b79f000000e0006a
:10131000080032003fb297000400e90008006000b6
:10132000cfb297006540780090df9f0070012000e9
:10133000a0b79f008c0078008100e9000500330011
:101340008b05d1000a85d3008984d3000884d3009b
:10135000f9ff3700089fbe000a97be002fb1970023
:101360000200e90023fc2f008f814100008441002e
:10137000140037002fb097000000e900a0b79f00cd
:101380003fb197000200e90004006000cfb1970070
:10139000635478003e00be002e01be000c027800af
:1013a0000402e900050033008381d1000281d300eb
:1013b0008180d3000080d300f9ff3700009fbe007a
:1013c0000297be003e02be002e03be00e00f520098
:1013d000e08f5a00e00f5b00e08f5b00da00340022
:1013e0002fb097000000e000e2ff3c00d60037007d
:1013f000ae60900080c6b30080cf50000b0032007a
:1014000006003c000104e000080032006640500085
:1014100080cf500073003a0004003700c0c6b3000c
:1014200080cf50006f003a0031003700080178008b
:101430000800e00005003a005e08900081012000ed
:10144000a1b79f000000e00009003200bfb1970083
:10145000110009000381d8008000fd004fb2970001
:101460006440780090df9f0075012000a5b79f00c1
:101470003fb29700110009000481d8008001780074
:10148000afb297000500e90021fc2f008f804000db
:10149000008240000c003700bfb297001100090025
:1014a0008501d800000178002fb097000000e90006
:1014b000a0b79f000590b90000805100cfb0970001
:1014c00061527800820178000300e00003003400dc
:1014d0002fb197000200e000efff3c00030078000e
:1014e000cf80de0001017800820178003a003700e9
:1014f0000806be00e00f5400e08f5c0005003a00d3
:101500005e08900083012000a3b79f000000e00068
:10151000090032003fb297006121b9000c00be0003
:10152000dd000700cfb297006540780090df9f0094
:1015300070012000a0b79f003fb297006121b90061
:101540000c00be00d70007000006be00afb2970037
:101550000500e90021fc2f008f80400080804000c2
:1015600091b79f00110037003fb197006114b90097
:101570000801be000c00be00da0007000005be0036
:10158000afb197008301e900a3b79f000801be0037
:10159000bb000700000056001fb29700cfb29700b3
:1015a0006552780094b79f000a06be00e00f56000f
:1015b000e08f5e00030034002fb097000000e000d1
:1015c000e9ff3c004feade00cfa2de000c00be00c7
:1015d0000401780084017800009fbe000297be00dd
:1015e00059003700e00f5400e08f5c00e00f5d0011
:1015f000e08f5d0005003a005e0890008101200048
:10160000a1b79f000000e0000d0032003fb197003d
:1016100002027800cfa2de0005037800860378007e
:101620000800be000a01be003e0107004fb297004d
:101630006440780090df9f0075012000a5b79f00ef
:101640003fb1970002027800cfa2de0005037800c8
:10165000860378000800be000a01be002a010700c8
:10166000009fbe000297be00afb197000300e900e3
:1016700024fc2f000f024200000642002400370025
:10168000bfb2970005047800cfc4de0009057800da
:101690008a0578000802be000a03be005fa8970012
:1016a000efa897007fa997008fb19700210107004d
:1016b000d0b79f00e1b79f00f2b79f0083bf9f00a4
:1016c0002fb097000000e900a0b79f000802be00fd
:1016d0000a03be005fb09700efb097007fb197009c
:1016e0008fb99700990107005faa97000000520088
:1016f000cfb29700655678005fb09700efb09700c3
:101700007fb197008fb99700009fbe000297be007f
:101710003e00be002e01be00d0af9f00e1af9f0093
:10172000f2af9f0083b79f00e00f5000e08f58009a
:10173000e00f5900e08f590003003400afb097006c
:101740000100e000ceff3c003fb19700e80f5100e0
:1017500013003a000e1090000038a3001000320071
:10176000afb19700f78f510006003e0024fc2f0018
:101770000f0242008300420000c3b300914f1000eb
:1017800007003200afb297008502e900a5b79f00bd
:1017900000c3b30021fc2f008f80400080f07a004e
:1017a000afb1970078811100120f98006e00900081
:1017b00024fc2f000f0242008300420093fb07002d
:1017c0001e0990005e089000800f510006003d0049
:1017d00002005000000f98000e1090000040a10081
:1017e000001798000f0037000000e0000d003d00da
:1017f0000e10900074006000f00f500009003a00d5
:101800007e089000fe009000010050008e089000bd
:1018100001005000020050004240a90001003400c5
:10182000000f98004f0778004f06be004f05be001e
:101830004f04be002f03b1000000060080007800b6
:10184000010037000000e8001004e000fdff3a004e
:1018500001005000000006008001eb00040037008a
:101860008301e80090cf1000040032000000e8007f
:10187000828f5100faff3a000000eb0000000600e2
:10188000020ab900001bb9000200b8008100420042
:101890008100430000000600020007000400be00b3
:1018a000000006006022b800060220000000d00000
:1018b0008180d2000482d2008582d2000000a00084
:1018c0000202520083825a000300310002024200e9
:1018d00083824a000000a1000603e900f3ff3a00fa
:1018e00000000600839f68000100e00002003d0048
:1018f00060001000e08018000300e00002003d00de
:1019000060011100e0811900e6ff07004f00e000d0
:1019100002003b0060001000e0801800000006009c
:10192000881f7800000478005001be004000be000f
:101930000400400085804800060149008781490075
:10194000009cbe000294be000400e1000588e10096
:101950000690e1000798e1000200310068004400b1
:101960001008e8004f04780000000600f4874700e4
:10197000889fbe008a9fbe008c9fbe008e1f78008d
:101980000205be000004be00d4b79f00e5b79f006b
:10199000f6b79f0087bf9f000000eb00c0b79f0015
:1019a000b0b79f00a0b79f0090b79f0080b79f007f
:1019b0000d042000bfb097004fb097000001400019
:1019c0000000e0000f003d004f08de000000710045
:1019d000c0b79f009e00070001003d0012002000dc
:1019e000a100070001003d0012002000a600070032
:1019f000b1000700b60007000f004000c8ff070055
:101a0000220037004f08de0000067100ccb79f00af
:101a10008f00070001003d00120020009200070027
:101a200001003d001200200097000700a2000700ff
:101a30000fb297009fb297002fb39700bfb39700e4
:101a4000a90007000000520081805a0002015b00db
:101a500083815b0080b79f0091b79f00a2b79f0072
:101a6000b3b79f000007eb009f0007000020e100d4
:101a700001a8e10002b0e10003b8e100010031007b
:101a80001e0020000e005600c0b79f004fb2970006
:101a90000400e000070035001000200001002000d5
:101aa0006011b80008047000898470000a05710094
:101ab0008b8571008d06e900beff3a000400e0004e
:101ac00003003d00820007000f00400094ff070064
:101ad0004fa897000000e00004003a000fb4970000
:101ae0009fb497002fb59700bfb5970094000700eb
:101af0004f0778004f06be004f05be004f04be00e2
:101b00004f01b10000000600881f78001800200077
:101b1000881f780095ff07008f87e9004f04780041
:101b200000000600801feb0090ff07008f87e90090
:101b300000000600889fbe008a9fbe008c1f7800b0
:101b40006e00070007003d0073000700e00f5b0018
:101b5000e08f5b0007003d00320007000006eb004d
:101b6000040037003400070002003d002a0007008f
:101b70001c00200072000700e3ff07000203be0004
:101b80000002be000c00e00001003200220007004d
:101b90000400be000601be004f0678004f05be00df
:101ba0004f04be0000000600889fbe008a9fbe0052
:101bb0008c1f78005100070005003d00560007000b
:101bc000e00f5b00e08f5b0006003d000400370083
:101bd0001900070003003d006000b8006011b80064
:101be0001000070056000700ceff07000203be00ea
:101bf0000002be000c00e0000100320006000700f9
:101c00000400be000601be004f0678004f05be006e
:101c10004f04be00000006006000b8006011b8006c
:101c20000000370004025000858258000603590066
:101c300087835900000006000006eb00e00f520009
:101c4000e08f5a00e00f5b00e08f5b0000000600b1
:101c50000180400090b79f000001eb008fb097001b
:101c60000100e000000006000200700090b79f0035
:101c70000180400080b79f000001eb00ffa89700a3
:101c80000100e000000006000200700080b79f0025
:101c9000018040006faa9700cf20de000100700095
:101ca000f0af9f0004024200250007004f18de003d
:101cb0000002720000000600e4af9f000804440028
:101cc00089844c000a054d008b854d0000000600fc
:101cd0003fb29700cfb297005fb39700efb3970082
:101ce00000fe2f00000006003fb09700cfb0970025
:101cf0005fb19700efb19700000006000205be003b
:101d00000004be00e00f5000e08f5800e00f5900c3
:101d1000e08f5900000006006000b8006011b800b4
:101d200008045000898458000a0559008b85590021
:101d30001c002000e00f5200e08f5a000000060057
:101d40000800be000a01be0000000600889fbe0019
:101d50008a9fbe008c1f78000205be000004be00f2
:101d60000006eb00e00f5000e08f5800e00f590034
:101d7000e08f590007003d006000b8006011b80016
:101d800008045000898458000a0559008b855900c1
:101d90001c002000e00f5200e08f5a00e00f5b00b3
:101da000e08f5b0002003d000f0007000c00a20066
:101db0000800be000a01be00120007000203be00b8
:101dc0000002be000c00e000010032000600070027
:101dd0000400be000601be004f0678004f05be009d
:101de0004f04be00000006006000b8006011b8009b
:101df0000402500085825800060359008783590069
:101e000000000600889fbe008a9fbe008c9fbe0017
:101e10000404b8000506b8008904460060854e0039
:101e20000606b8000a054600e0854e000706b80021
:101e30008b054600040eb800890446000a854e0052
:101e4000e0854d00050eb8000a0546008b854e0062
:101e5000060eb8008b0546000416b8000a054600b9
:101e60008b854e000516b8008b054600041eb80091
:101e70008b0546000800be000a01be004f06be00ea
:0c1e80004f05be004f04be00000006002d
:020000040000fa
:020000040001f9
:0457f8008f790000a5
:020000040000fa
:020000040001f9
:0457fc007f3f0000eb
:020000040000fa
:10000800fe220000fe220000fe220000fe22000068
:10001800fe220000fe220000fe220000fe22000058
:10002800fe220000fe220000c8160000fe2200008a
:10003800fe220000fe220000d61600006c1600000a
:10004800fe220000fe220000021700004a1d0000e8
:10005800fe220000fe220000fe220000fe22000018
:10006800fe220000fe220000fe220000fe22000008
:10007800fe220000fe220000fe220000fe220000f8
:10008800fe220000fe220000fe220000fe220000e8
:10009800fe220000fe220000d21e0000fe22000008
:1000a800fe220000fe220000fe220000fe220000c8
:1000b800fe220000fe220000fe220000fe220000b8
:1000c800fe220000fe220000fe220000fe220000a8
:1000d800fe220000fe220000fe220000fe22000098
:1000e800fe220000e01f0000fe220000fe220000a9
:1000f800fe220000fe220000fe220000fe22000078
:10010800fe220000fe220000fe220000fe22000067
:10011800fe220000fe220000fe220000fe22000057
:10012800fe220000fe220000fe220000fe22000047
:10013800fe220000fe220000fe220000fe22000037
:10014800fe220000fe220000fe220000fe22000027
:10015800fe220000fe220000fe220000fe22000017
:10016800fe220000fe220000fe220000fe22000007
:10017800fe220000fe220000fe220000fe220000f7
:10018800fe220000fe220000fe220000fe220000e7
:10019800fe220000fe220000fe220000fe220000d7
:1001a800fe220000fe220000fe220000fe220000c7
:1001b800fe220000fe220000fe220000fe220000b7
:1001c800fe220000fe220000fe220000fe220000a7
:1001d800fe220000fe220000fe220000fe22000097
:1001e800fe220000fe220000fe220000fe22000087
:0801f800fe220000fe220000bf
:020000040000fa
:10020800fe220000fe220000fe220000fe22000066
:10021800fe220000fe220000fe220000fe22000056
:10022800fe220000fe220000c8160000fe22000088
:10023800fe220000fe220000d61600006c16000008
:10024800fe220000fe220000021700004a1d0000e6
:10025800fe220000fe220000fe220000fe22000016
:10026800fe220000fe220000fe220000fe22000006
:10027800fe220000fe220000fe220000fe220000f6
:10028800fe220000fe220000fe220000fe220000e6
:10029800fe220000fe220000d21e0000fe22000006
:1002a800fe220000fe220000fe220000fe220000c6
:1002b800fe220000fe220000fe220000fe220000b6
:1002c800fe220000fe220000fe220000fe220000a6
:1002d800fe220000fe220000fe220000fe22000096
:1002e800fe220000e01f0000fe220000fe220000a7
:1002f800fe220000fe220000fe220000fe22000076
:10030800fe220000fe220000fe220000fe22000065
:10031800fe220000fe220000fe220000fe22000055
:10032800fe220000fe220000fe220000fe22000045
:10033800fe220000fe220000fe220000fe22000035
:10034800fe220000fe220000fe220000fe22000025
:10035800fe220000fe220000fe220000fe22000015
:10036800fe220000fe220000fe220000fe22000005
:10037800fe220000fe220000fe220000fe220000f5
:10038800fe220000fe220000fe220000fe220000e5
:10039800fe220000fe220000fe220000fe220000d5
:1003a800fe220000fe220000fe220000fe220000c5
:1003b800fe220000fe220000fe220000fe220000b5
:1003c800fe220000fe220000fe220000fe220000a5
:1003d800fe220000fe220000fe220000fe22000095
:1003e800fe220000fe220000fe220000fe22000085
:0803f800fe220000fe220000bd
:020000040000fa
:101e8c000000000000000000000000000000000046
:101e9c000000000000000000000000000000000036
:101eac0000000000001800001818000018180000ae
:101ebc0018000000181800000000000000000000ce
:101ecc0000000000484800004848000000000000e6
:101edc0000000000000000000000000000000000f6
:101eec00000000000044000044fe000044440000d8
:101efc0044fe00004444000000000000000000000c
:101f0c0000100000107c000092900000907c0000fb
:101f1c0012120000927c0000101000000000000063
:101f2c000000000000000000006200009468000047
:101f3c00102c0000528c000000000000000000007b
:101f4c000000000000380000444400003856000037
:101f5c008c8800008c76000000000000000000005f
:101f6c000000000010100000102000000000000015
:101f7c000000000000000000000000000000000055
:101f8c000000000000040000081000001010000009
:101f9c001010000008040000000000000000000009
:101fac0000000000002000001008000008080000dd
:101fbc0008080000102000000000000000000000d5
:101fcc0000000000000000000044000028fe00009b
:101fdc002844000000000000000000000000000089
:101fec0000000000000000001010000010fe0000b7
:101ffc0010100000100000000000000000000000a5
:10200c0000000000000000000000000000000000c4
:10201c000000000030300000102000000000000024
:10202c00000000000000000000000000007e000026
:10203c000000000000000000000000000000000094
:10204c000000000000000000000000000000000084
:10205c000000000030300000000000000000000014
:10206c000000000000000000020400000810000046
:10207c002040000080000000000000000000000074
:10208c0000000000003c000042420000464a0000f4
:10209c0052620000423c0000000000000000000002
:1020ac0000000000000800001838000008080000bc
:1020bc0008080000080800000000000000000000f4
:1020cc0000000000003c0000420200000418000068
:1020dc0020400000407e00000000000000000000d6
:1020ec0000000000003c000042020000021c000046
:1020fc0002020000423c0000000000000000000052
:10210c0000000000000400000c1400002444000037
:10211c007e04000004040000000000000000000029
:10212c0000000000007e0000404000007c02000027
:10213c0002020000423c0000000000000000000011
:10214c0000000000001c000020400000407c00004b
:10215c0042420000423c0000000000000000000071
:10216c0000000000007e0000420200000408000095
:10217c001010000010100000000000000000000013
:10218c0000000000003c000042420000423c000005
:10219c0042420000423c0000000000000000000031
:1021ac0000000000003c000042420000423e0000e3
:1021bc0002020000043800000000000000000000d3
:1021cc0000000000000000003030000000000000a3
:1021dc000030000030000000000000000000000093
:1021ec000000000000000000303000000000000083
:1021fc000030000030100000200000000000000043
:10220c000000000000040000081000002040000046
:10221c002010000008040000000000000000000076
:10222c000000000000000000000000007e00000024
:10223c00007e000000000000000000000000000014
:10224c000000000000400000201000000804000006
:10225c0008100000204000000000000000000000fa
:10226c0000000000003c0000424200000408000096
:10227c00080000000808000000000000000000003a
:10228c0000000000003c0000424200004e520000e2
:10229c00524e0000403c0000000000000000000016
:1022ac000000000000180000244200004242000020
:1022bc007e420000424200000000000000000000ce
:1022cc0000000000007c000042420000427c000044
:1022dc0042420000427c00000000000000000000b0
:1022ec0000000000003c00004242000040400000a2
:1022fc0040420000423c00000000000000000000d2
:10230c00000000000078000044420000424200003f
:10231c004242000044780000000000000000000071
:10232c0000000000007e00004040000040780000eb
:10233c0040400000407e0000000000000000000053
:10234c0000000000007e00004040000040780000cb
:10235c004040000040400000000000000000000071
:10236c0000000000003c0000424000004040000023
:10237c004e420000463a0000000000000000000041
:10238c00000000000042000042420000427e0000bb
:10239c004242000042420000000000000000000029
:1023ac0000000000001c00000808000008080000e5
:1023bc0008080000081c00000000000000000000dd
:1023cc0000000000000200000202000002020000f7
:1023dc0002420000423c000000000000000000002f
:1023ec000000000000420000424400004870000061
:1023fc0048440000424200000000000000000000c1
:10240c000000000000400000404000004040000080
:10241c0040400000407e0000000000000000000072
:10242c000000000000820000c6aa0000929200008a
:10243c008282000082820000000000000000000088
:10244c00000000000042000062520000524a0000ee
:10245c004a4600004242000000000000000000005c
:10246c0000000000003c000042420000424200001c
:10247c0042420000423c000000000000000000004e
:10248c0000000000007c000042420000427c000082
:10249c004040000040400000000000000000000030
:1024ac0000000000003c00004242000042420000dc
:1024bc00424a00004a3c00000406000000000000f4
:1024cc0000000000007c000042420000427c000042
:1024dc0044420000424200000000000000000000e6
:1024ec0000000000003c00004242000020180000e8
:1024fc0004420000423c000000000000000000000c
:10250c000000000000fe0000101000001010000081
:10251c00101000001010000000000000000000006f
:10252c000000000000420000424200004242000055
:10253c0042420000423c000000000000000000008d
:10254c000000000000420000424200004242000035
:10255c0042420000241800000000000000000000af
:10256c0000000000008200008282000082920000c5
:10257c0092ba00006c440000000000000000000053
:10258c00000000000042000042420000241800003d
:10259c002442000042420000000000000000000045
:1025ac00000000000082000082820000443800001d
:1025bc0010100000101000000000000000000000cf
:1025cc0000000000007e0000020400000810000063
:1025dc0020400000407e00000000000000000000d1
:1025ec0000000000003c0000202000002020000023
:1025fc0020200000203c0000000000000000000033
:10260c0000000000000000008040000020100000ce
:10261c0008040000020000000000000000000000a0
:10262c0000000000003c0000040400000404000052
:10263c0004040000043c0000000000000000000046
:10264c000010000028440000820000000000000080
:10265c00000000000000000000000000000000006e
:10266c00000000000000000000000000000000005e
:10267c00000000000000000000ff0000000000004f
:10268c000000000010100000100800000000000006
:10269c00000000000000000000000000000000002e
:1026ac000000000000000000000000003c020000e0
:1026bc003e420000423e000000000000000000000e
:1026cc000000000000400000404000007c42000080
:1026dc0042420000427c00000000000000000000ac
:1026ec000000000000000000000000003c42000060
:1026fc0040400000423c00000000000000000000d0
:10270c000000000000020000020200003e42000037
:10271c0042420000423e00000000000000000000a9
:10272c000000000000000000000000003c4200001f
:10273c007e400000423c0000000000000000000051
:10274c0000000000001c0000222200002078000085
:10275c0020200000202000000000000000000000ed
:10276c000000000000000000000000003e420000dd
:10277c00424200003e020000423c0000000000000b
:10278c000000000000400000404000005c620000bf
:10279c004242000042420000000000000000000025
:1027ac0000000000000800000800000018080000ed
:1027bc0008080000081c00000000000000000000d9
:1027cc0000000000000200000200000002020000f5
:1027dc000202000002220000221c00000000000087
:1027ec000000000000400000404000004244000097
:1027fc00784400004242000000000000000000008d
:10280c000000000000180000080800000808000084
:10281c0008080000081c0000000000000000000078
:10282c00000000000000000000000000c4ee0000ea
:10283c009292000092820000000000000000000054
:10284c000000000000000000000000005c620000be
:10285c004242000042420000000000000000000064
:10286c000000000000000000000000003c420000de
:10287c0042420000423c000000000000000000004a
:10288c000000000000000000000000007c4200007e
:10289c00424200007c40000040400000000000006c
:1028ac000000000000000000000000003e4200009c
:1028bc00424200003e020000020300000000000043
:1028cc000000000000000000000000005c6200003e
:1028dc0040400000404000000000000000000000ec
:1028ec000000000000000000000000003c4200005e
:1028fc0038040000423c0000000000000000000012
:10290c000000000000100000101000007c100000ff
:10291c0010100000100c000000000000000000006f
:10292c000000000000000000000000004242000017
:10293c0042420000463a0000000000000000000087
:10294c000000000000000000000000002222000037
:10295c00222200001408000000000000000000000b
:10296c000000000000000000000000008292000047
:10297c0092ba00006c44000000000000000000004f
:10298c0000000000000000000000000042240000d5
:10299c001818000024420000000000000000000095
:1029ac000000000000000000000000004242000097
:1029bc00424200003e0200000478000000000000cb
:1029cc000000000000000000000000007e04000079
:1029dc0008100000207e0000000000000000000035
:1029ec00000000000006000008080000083000008d
:1029fc0008080000080600000000000000000000ad
:102a0c00000000000010000010100000100000007a
:102a1c00101000001010000000000000000000006a
:102a2c00000000000060000010100000100c0000fe
:102a3c0010100000106000000000000000000000fa
:102a4c000000000000760000dc0000000000000028
:102a5c00000000000000000000000000000000006a
:102a6c0000000000000000000010000028440000de
:102a7c0082820000fe000000000000000000000048
:102a8c00303100003233000034350000363700009e
:102a9c003839000041420000434400004546000024
:102aac0025300000327800002f2500003032000065
:102abc00782f00002530000032780000002500003f
:102acc0030320000783a00002530000032780000e7
:102adc003a25000030320000780000002853000036
:102aec00554e000029000000284d00004f4e0000fc
:102afc002900000028540000554500002900000062
:102b0c00285700004544000029000000285400000c
:102b1c0048550000290000002846000052490000da
:102b2c002900000028530000415400002900000037
:102b3c00749500007a950000809500008695000041
:102b4c008c95000092950000989500000003000001
:102b5c00030600000104000006020000050000004e
:102b6c00030500002f3a000000000000303900007f
:102b7c002f310000322f00003331000000320000f2
:102b8c00333a0000353900003a35000030000000bf
:020000040000fa
:102b9c000200fa00c962a900c942a900a16c200078
:102bac009140780000ceb30000c060007040b300cc
:102bbc00cae6b7000000eb0080088800703f2000d8
:102bcc0060088800710a200091407800f0c8b300ba
:102bdc0000c0600001c4b30001407000a7e0b70062
:102bec0084e0a90094e0a800510a200091407800ec
:102bfc0080cfb30000c060000024a000a5e0b700a7
:102c0c008440a9009440a800710a200091407800eb
:102c1c0080cfb30000c060000024a000a7e0b70084
:102c2c0084c0a90094c0a800704320001012880032
:102c3c000000eb0020128800000028000012880021
:102c4c00910a20009140780080cfb30000c0600052
:102c5c000024a000a9e0b7008540a9009540a80079
:102c6c000040eb00f8e8b70030c1b300f9e8b7005a
:102c7c0000902000d04788000000eb00000f780087
:102c8c0006003700d04780008000eb000108780078
:102c9c000080e800d04788001e0fe800f0bf20003d
:102cac009e0f1000f7ff360000902000d0478800e0
:102cbc000040eb00ffe8b700ffc8bf00fee8b7001c
:102ccc0011e1a8000080fa000000060000a0fe0040
:102cdc000000fa00cd62a900f8c8bf00ef4f400019
:102cec0011003600803a2000100c880010002000e3
:102cfc00200c8800f9c8bf000040e900f9e8b700d3
:102d0c00f9c8bf000004e0001a003a000040eb00d4
:102d1c00f8e8b70030c1b300f9e8b7000090200024
:102d2c00d04788001300370060042000100c880086
:102d3c0010002000200c8800f8c8bf00f84f50008d
:102d4c0009003600818f20009140780070cdb300cf
:102d5c0080cf500004003e00a00b2000400c8800e7
:102d6c0010002000500c8800f8c8bf000040e8009c
:102d7c00f8e8b70084e0a9000080fa000080fe00ab
:102d8c000040060000a0fe000000fa00cd62a80082
:102d9c008440a9000080fa000080fe00004006007c
:102dac0000a0fe000000fa00d1478000110078005e
:102dbc00401288000180e800d047880084c0a90038
:102dcc000000eb00e047880040c2bf00624060009a
:102ddc000004e000fcff3a00d0478000900078002f
:102dec00411288000080e800d04788000080fa007b
:102dfc000080fe000040060000a0fe000200fa0069
:102e0c00e0478000ed0f500008003e00d1478000e5
:102e1c0011007800401288000180e800d04788003b
:102e2c00e04780000000e800e04788004012800086
:102e3c00000f78008540a9000080fa000080fe0099
:102e4c00004006000400fa00000f780011079800fb
:102e5c00f00f20009e0f10001b003e009e00900003
:102e6c00f00b2000808f500017003e001e009000d9
:102e7c00c400dd001e0078004400de0080814000ac
:102e8c001e009000c400dd001e0078004400de002f
:102e9c000080400080004000009020000080400036
:102eac00100178001e007800ef0060000000280080
:102ebc000100de00000171008380410000902000c1
:102ecc0000804000020878000080fa000000060034
:102edc001800fa00000f9800110f9800220f9800ac
:102eec00330f98008e0890002e089000808f5000b1
:102efc00070036000080eb00500798008e08900009
:102f0c002e089000008050007007980006003700d3
:102f1c001000200050079800ae0890000e0890009a
:102f2c0000805000700798009e0890003e089000aa
:102f3c00808f5000070036000080eb00400798009f
:102f4c009e0890003e08900000805000600798009a
:102f5c00060037001000200040079800be089000c3
:102f6c001e0890000080500060079800ee00900052
:102f7c007e009000808f5000090036007e0090008b
:102f8c00000f78006e009000700798001e0078000b
:102f9c006007980010c0b30060479800020037002b
:102fac000040eb00604798006e009000000040006d
:102fbc00800078007e009000008050002007980070
:102fcc000000eb00100798002c0037009e089000c2
:102fdc000e0890009bff07002e0090000000e00000
:102fec00110035006e409000e14f500005003a0092
:102ffc005e0090008e08900000804000000f98004a
:10300c00040037004e0090009e08900000804000a5
:10301c00100f9800ae0090007e0090000000400061
:10302c0000805000200798006e409000e14f500047
:10303c0005003a004e0090009e0890000080400071
:10304c00100f9800040037005e0090008e0890006e
:10305c0000804000000f98006e00900000004000bf
:10306c00800078002e00900000804000200798001f
:10307c001e0090000000e800100798009e009000d1
:10308c007e009000808f5000d0ff36000080fa0048
:10309c00000006000800fa0060479800ee4090001f
:1030ac0000ceb30000c04000604798006e40900016
:1030bc000004e00004003500ee409000f0c5b300c1
:1030cc0080cf5000020034000040eb0060479800b5
:1030dc00fec8bf00ff4f5000050036000040eb005b
:1030ec00fee8b700ffc8bf000040e800ffe8b700eb
:1030fc00ffc8bf00eb4f5000020036000040eb0051
:10310c00ffe8b700ffc8bf000080fb00c800dd006f
:10311c00fec8bf000080fb000000d1000080fb0057
:10312c0000804000000040008000780000902000eb
:10313c0000804000100798006e4090000000fb00db
:10314c004400dd00000178008e00780060f4280057
:10315c00800841000000eb00200798003300370086
:10316c00fec8bf000080fb00610060000004e000ae
:10317c00140032001e0090009000780000f02f0028
:10318c00808060001e009000010878001e009000f6
:10319c00900078000e007800100078001040780045
:1031ac000080fb00808070001e00900001087800f9
:1031bc008e0078000e00780010017800e1084100c4
:1031cc00140037001e00900090007800f00f2000d3
:1031dc00808060001e009000010878001e009000a6
:1031ec00900078000e0078001000780010407800f5
:1031fc000080fb004800dd00808070001e00900005
:10320c00010878008e0078000e007800100178001c
:10321c00e10841001e0090000002b0001007980069
:10322c002e0090000000e800200798002e0090006f
:10323c00ef0f5000caff3600fec8bf000040e80088
:10324c00fee8b7000080fa00000006000200fa0059
:10325c00000f7800040037001e0078001040780042
:10326c001e0fe8008bff07001e007800104078004e
:10327c000004e000f8ff3a000080fa0000000600ad
:10328c000200fa00004f78001e00fb004480de00b4
:10329c008000fb0060542900008040001040780042
:1032ac007cff07001e00fb00ef006000605429004b
:1032bc00008040001040780076ff07000080fa0084
:1032cc00000006000200fa00004f78001147980039
:1032dc00f0c1b3009e4f100004003e001e40780069
:1032ec00fee8b7001e409000ffe8b7000080fa002f
:1032fc00000006000000fa00dec8bf008080fb0062
:10330c00dfc8bf000081fb00e0c8bf000080fb00ed
:10331c00811f7800821f7800801f7800605529007b
:10332c00801f7800608e200082f40700e887570029
:10333c00608e20000080fa00000006000000fa00f9
:10334c00e2c8bf008080fb00e3c8bf000081fb0027
:10335c00e4c8bf000080fb00811f7800821f78004a
:10336c00801f780050562900801f7800f08e2000b6
:10337c0070f40700e8875700f08e20000080fa00f8
:10338c00000006000a00fa000000370027c6bf0044
:10339c00704060000004e000fcff3a0027c6bf004c
:1033ac003040b30027e6b7002031800010079800aa
:1033bc0020318000000f780027c6bf003040b300da
:1033cc0027e6b700203180003007980020318000bc
:1033dc00200798001e01be002e009000be00900039
:1033ec00800f5100818f5900e8ff3a00f2468000af
:1033fc00034780001e00be00800f5100818f5900d2
:10340c00060032001e00be00f0468800014788000e
:10341c001000200040079800020037000000eb006d
:10342c00400798004e0090000080fa000000060053
:10343c000a00fa000000370027c6bf007040600089
:10344c000004e000fcff3a0071622000914078001b
:10345c00c0cfb30000c060000004a00027e6b70096
:10346c00203180001007980020318000000f780078
:10347c007162200091407800c0cfb30000c06000a2
:10348c000004a00027e6b700203180003007980028
:10349c0020318000200798001e01be002e009000f5
:1034ac00be009000800f5100818f5900e2ff3a005e
:1034bc0012478000234780001e00be00800f510081
:1034cc00818f5900060032001e00be001047880094
:1034dc0021478800100020004007980002003700a8
:1034ec000000eb00400798004e0090000080fa00ae
:1034fc00000006000e00fa00e05929000600090041
:10350c00301f7800ee00b100e000b100c8ff0700ea
:10351c00e5c8bf000080fb00800040000e00780072
:10352c0000804000100078000080fa0000000600c7
:10353c000400fa00e0c8bf000080fb004400de007d
:10354c000080fb006a00b90080407800e0c8bf0032
:10355c006f40600000c0400030479800dfc8bf00db
:10356c000080fb004400de000080fb006a00b90014
:10357c0080407800dfc8bf006f40600000c0400092
:10358c0020479800dec8bf000080fb004400de002e
:10359c000080fb006a00b90080407800dec8bf00e4
:1035ac006f40600000c04000104798003e40900003
:1035bc000080fb004200de00804078003e4090001e
:1035cc0000c04000004178002e4090000080fb00bd
:1035dc008000e900c05a29000080400010407800ab
:1035ec00804041001e40900000c0400066404000fa
:1035fc00004f78003e4090000080fb0063006000ac
:10360c000000e00006003a002e409000e24f50000f
:10361c0003003e001e4078000040e900004f780097
:10362c001e80fb0072002000110009000280d800ef
:10363c008000fd00004f78001e407800e5e8b700e0
:10364c000080fa00000006000000fa00217420003f
:10365c0020c3b30062042000730520008248780068
:10366c0083487800804878000080fa00000006004b
:10367c000000fa000500fc0057052000373b8800cd
:10368c00a80a2000383b880027a6a80000000000ec
:10369c00000000000080fa00000006000000fa00a4
:1036ac00f3ff070027c6bf003040b30027e6b70082
:1036bc000047800020318800f046800020318800cf
:1036cc00204780002031880010478000203188007e
:1036dc0027a6a9000080fa00000006000000fa00ee
:1036ec00d9ff0700e2ff070000802a003031880074
:1036fc000000eb001031880027a6a90090c0b30091
:10370c00e0e8b70020c1b300dfe8b70010c3b30096
:10371c00dee8b70030c2b300e4e8b70090c5b300f0
:10372c00e3e8b70000c5b300e2e8b70080ff07008c
:10373c00daff07000080fa00000006000400fa001f
:10374c00100798000040eb0010479800330037003a
:10375c001e00900090407800f0c2b30080cf500063
:10376c00080034001e0090009040780090c3b30015
:10377c0080cf500003003c0000c3b300004f780022
:10378c00190037001e0090009040780000c4b30070
:10379c0080cf5000080034001e009000904078004c
:1037ac0060c4b30080cf500003003c0070c3b30072
:1037bc00004f78000c0037001e00900090407800fd
:1037cc0000c6b30080cf5000180034001e009000db
:1037dc009040780060c6b30080cf500013003c00ce
:1037ec0070c5b300004f78001e4090000080fb00b5
:1037fc004400dd00804078001e00900010407800ee
:10380c0080c040001e40780000c050001047980057
:10381c001e0090000000e800100798001e009000a9
:10382c00104078000004e000c9ff3a001e409000f0
:10383c000080fb000080fa00000006000600fa0081
:10384c0010079800815b29001e0090004af30700c6
:10385c00000f78001e00e00003003a00100020006a
:10386c00200798001e0037001e007800b3ff0700e9
:10387c00e0e8b700815b29000000eb003ef3070095
:10388c00000f78001e00e00003003a00100020003a
:10389c0020079800120037001e007800a7ff0700d1
:1038ac00dfe8b700815b29000000eb0032f3070072
:1038bc00000f78001e00e00003003a00100020000a
:1038cc0020079800060037001e0078009bff0700b9
:1038dc00dee8b70016ff07000000eb002007980099
:1038ec002e0090000080fa00000006000600fa008e
:1038fc0010079800815b29001e0090001ef3070042
:10390c00000f78001e00e00003003a0010002000b9
:10391c00200798001d0037001e00780087ff070065
:10392c00e4e8b700815b29000000eb0012f307000c
:10393c00000f78001e00e00003003a001000200089
:10394c0020079800110037001e0078007bff07004d
:10395c00e3e8b700815b29000000eb0006f30700e9
:10396c00000f78001e00e00003003a001000200059
:10397c0020079800050037001e0078006fff070035
:10398c00e2e8b7000000eb00200798002e00900042
:10399c000080fa00000006000000fa00c902a9002d
:1039ac00c922a800816c20009140780000ceb300a1
:1039bc0000c060003040b300c8e6b700416a200088
:1039cc009140780000ceb30000c060009040b3007e
:1039dc00a4e6b70070062000401188000080280083
:1039ec00001188000040200010118800910a20006e
:1039fc0091407800f0c8b30000c0600001c4b3006f
:103a0c0001407000a9e0b7008560a9009560a8008e
:103a1c000080fa00000006000200fa00004f780057
:103a2c0000c8bf00f34f5000fdff320023c2bf009f
:103a3c00624060000004e000fcff3a001e00fb0046
:103a4c00201188000080fa00000006000200fa0035
:103a5c00000f7800040037001e007800104078003a
:103a6c001e0fe800ecff07001e00780010407800e5
:103a7c000004e000f8ff3a00a0c0b300e6ff070026
:103a8c000080fa000000060000a0fe000200fa0010
:103a9c008560a90030118000004f780010c1b30080
:103aac009e4f10000300320030c1b3009e4f100037
:103abc0003003a001e40780000e8b7001e003700f3
:103acc00318420009140780000c4b30080cf5000b6
:103adc001900320041c8bf008080fb00108020001c
:103aec00008040001e48780041c8bf000040e8003c
:103afc0041e8b70041c8bf00f043b20041e8b7004d
:103b0c0043c8bf000040e80043e8b7003184200000
:103b1c009140780000c3b30080cf500006003a00fb
:103b2c0023c2bf00624060000004e000fcff3a00ca
:103b3c0030012000201188000080fa000080fe0077
:103b4c00004006000000fa0043c8bf000080fb00e4
:103b5c000080fa00000006000200fa00f9ff0700de
:103b6c000004e000fdff32009560a90042c8bf00d0
:103b7c008080fb001080200000804000104f7800f7
:103b8c0042c8bf000040e80042e8b70042c8bf008e
:103b9c00f043b20042e8b70043c8bf000040e90060
:103bac0043e8b700318420009140780000c3b30093
:103bbc0080cf500006003a0023c2bf006240600074
:103bcc000004e000fcff3a001001200020118800e6
:103bdc009560a8001e00fb000080fa0000000600a3
:103bec000600fa0010079800414798000040eb00cf
:103bfc00004f7800230037001e409000e94f500022
:103c0c0002003a0000c2b300104798001e4090001a
:103c1c00e84f50000a003a001e04e0000800320091
:103c2c001e4fe90080c0b3007bff070000c2b30049
:103c3c0079ff070080c0b30077ff07001100370041
:103c4c001e4090000000fb0067f207000000e0003f
:103c5c000c0032004e4090009e4f100009003100c5
:103c6c001e80fb00800078001e0090000080400049
:103c7c009e409000014878001e4fe8001e409000c6
:103c8c0065ff0700b4ff0700104798001e40900026
:103c9c00ea4f5000d8ff3a001e80fb0080007800ed
:103cac001e009000808040000040eb0080487800af
:103cbc00a0c0b30058ff07000080fa000000060007
:103ccc000000fa00c802a900c822a800016c20005c
:103cdc009140780000ceb30000c060005040b300ab
:103cec00c0e6b700616a20009140780000ceb300b6
:103cfc0000c060000004a000a6e6b700700620001b
:103d0c00c01188000080280080118800004020002d
:103d1c0090118800310b20009140780080cfb300c7
:103d2c0000c060000024a000b3e0b70087c0a90069
:103d3c0097c0a8000080fa00000006000200fa00fc
:103d4c00004f780033c2bf00624060000004e00006
:103d5c00fcff3a001e00fb00a01188000080fa0056
:103d6c00000006000200fa00000f78000400370083
:103d7c001e007800104078001e0fe800efff0700cf
:103d8c001e007800104078000004e000f8ff3a00b4
:103d9c000080fa000000060000a0fe000200fa00fd
:103dac0087c0a900b0118000004f780071882000f6
:103dbc009140780000c4b30080cf50000e00320058
:103dcc0085c8bf008080fb0050842000008040002c
:103ddc001e48780085c8bf000040e80085e8b700a1
:103dec0085c8bf00f043b20085e8b70087c8bf00a4
:103dfc000040e80087e8b7000080fa000080fe0071
:103e0c00004006000000fa0087c8bf000080fb00dd
:103e1c000080fa00000006000200fa00f9ff07001b
:103e2c000004e000fdff320097c0a90086c8bf0067
:103e3c008080fb005084200000804000104f7800f0
:103e4c0086c8bf000040e80086e8b70086c8bf00ff
:103e5c00f043b20086e8b70087c8bf000040e90015
:103e6c0087e8b70097c0a8001e00fb000080fa008e
:103e7c00000006000600fa00100798004147980061
:103e8c000040eb00004f7800230037001e409000ec
:103e9c00e94f500002003a0000c2b30010479800ee
:103eac001e409000e84f50000a003a001e04e0004b
:103ebc00080032001e4fe90080c0b3009fff0700ce
:103ecc0000c2b3009dff070080c0b3009bff07003a
:103edc00110037001e4090000000fb00c2f10700eb
:103eec000000e0000c0032004e4090009e4f10008d
:103efc00090031001e80fb00800078001e0090003d
:103f0c00008040009e409000014878001e4fe80061
:103f1c001e40900089ff0700bfff07001047980064
:103f2c001e409000ea4f5000d8ff3a001e80fb0064
:103f3c00800078001e009000808040000040eb0064
:103f4c0080487800a0c0b3007cff07000080fa0016
:103f5c00000006000000fa000040eb00dae8b700b1
:103f6c000040eb00dbe8b7000040eb00dce8b700fa
:103f7c002c83a8002ca3a80020052000d0108800ba
:103f8c0000002800b0108800c10b20009140780080
:103f9c00f0c8b30000c0600001c3b3000140700062
:103fac00bce0b7008a20a9009a20a8000080fa0083
:103fbc000000060000a0fe000000fa008a20a90004
:103fcc00dcc8bf00ef4f50003b003e0018c2bf00e2
:103fdc000042b2000004e00016003a0010c2bf001c
:103fec00d9e8b70018c2bf00644060000004e000cc
:103ffc000c003a000040eb00d8e8b700dcc8bf006a
:10400c000040e800dce8b700dac8bf000040e80078
:10401c00dae8b700dac8bf006f406000dae8b70032
:10402c0025003700dcc8bf0012e2b7001782a800d9
:10403c002100370018c2bf00624060000004e0009d
:10404c0015003200d8c8bf00e44f50000f003e00ee
:10405c00dac8bf008080fb00d8c8bf000081fb001d
:10406c0003212000934178006508b90082004000cc
:10407c00808820000080400003487800d8c8bf002a
:10408c000040e800d8e8b7000b00370010c2bf00b2
:10409c00d9e8b7000800370019c2bf0001c8b30047
:1040ac00014060000004e00003003a00dcc8bf00df
:1040bc0012e2b7001782a8000080fa000080fe0010
:1040cc00004006000200fa00dcc8bf000004e0005b
:1040dc008600320018c2bf00704060000004e0008f
:1040ec00fcff32009600a900dcc8bf000040e900cc
:1040fc00dce8b700dbc8bf000040e800dbe8b70035
:10410c00dbc8bf006f406000dbe8b7009600a8007a
:10411c00dbc8bf000080fb006500b90080007800a0
:10412c008088200000804000104078000080fb0058
:10413c00000f78001e007800e20f5000490032009a
:10414c001e007800e20f500007003c001e007800b3
:10415c000000e0000b0032001e007800e10f500060
:10416c001b003200610037001e007800e30f500086
:10417c004d0032001e007800e40f50005300320056
:10418c005a003700dbc8bf000080fb006500b90097
:10419c008080e8008088200000804000104078007b
:1041ac000081fb00dbc8bf000080fb006500b9008c
:1041bc008000e800808820000080400010407800db
:1041cc000080fb00820078001efb070047003700d0
:1041dc00dbc8bf000080fb006500b900e4004000b4
:1041ec008088200000804000104078000081fb0097
:1041fc00dbc8bf000080fb006500b900e300400095
:10420c008088200000804000104078000082fb0075
:10421c00dbc8bf000080fb006500b9008080e800af
:10422c008088200000804000104078008082fb00d5
:10423c00dbc8bf000080fb006500b9008000e8000f
:10424c008088200000804000104078000080fb0037
:10425c008201780004017800850078001cfb0700bf
:10426c0022003700dbc8bf000080fb006500b900ee
:10427c008080e80080882000008040001041780099
:10428c00dbc8bf000080fb006500b9008000e800bf
:10429c008088200000804000104078008240780028
:1042ac0008fc070011003700dbc8bf000080fb00d2
:1042bc006500b9008000e800808820000080400084
:1042cc001040780073fb070008003700dbc8bf0004
:1042dc000080fb006500b9008000e80080882000a9
:1042ec000080400010407800e5fb07000080fa00d9
:1042fc00000006001600fa00e4004700c05b29002d
:10430c0008000900b05878009100b1009000b1008d
:10431c00ed004700505c290008000900b0587800f7
:10432c009100b1009000b1000000eb00203a880031
:10433c0017fa070007ff0700e8fc070010c2b300dc
:10434c00004f7800030037001e40780051fb070037
:10435c001e4fe800f0c7b3009e4f1000faff3a0062
:10436c000000eb0010079800060037000101200048
:10437c001e009000b3fa07001e009000640040007d
:10438c00100798009e009000f00f2000808f5000c6
:10439c00f6ff36000000eb0010079800060037000f
:1043ac00010220001e009000a6fa07001e009000db
:1043bc0064004000100798009e009000f00f200051
:1043cc00808f5000f6ff360003032000f20f200010
:1043dc00010320000000eb00bdfa07006400470059
:1043ec0016fd07000004e00005003a006d004700d0
:1043fc003efd07000004e00001003a00a7fc0700a6
:10440c00a1c0b3000040eb00aefb0700b9fb0700f6
:10441c008efb070037fc07008cfb0700b1c0b30014
:10442c000040eb00a7fb0700c4fb070087fb07005d
:10443c00d4fb07000004e00007003200a1c0b30069
:10444c000040eb009ffb0700aafb07007ffb070067
:10445c0028fc07007dfb0700f5fb07000004e000cb
:10446c0005003200b1c0b3000040eb0095fb070023
:10447c00b2fb070075fb070012ff0700ecff3700cb
:020000040000fa
:10448c00000900000018000000000000f8080000ff
:10449c000800000000000000de0800001a00000008
:1044ac00000000008808000056000000000000001a
:1044bc000008000088000000000000003c21000003
:1044cc000200000002000000402100003e2100001c
:1044dc00020000000000000040210000020000006b
:1044ec000200000000000000222100001200000069
:1044fc00020000000100020000040000080010008f
:10450c0000000000202b2d0023300000342100007f
:10451c000800000002000000686a6c00747a4c000d
:10452c00000000000021000022000000020000003a
:10453c00303132003334350036373800396162009f
:10454c006364650066003000313233003435360068
:10455c003738390041424300444546000000000012
:04456c00000000004b
:020000040000fa
:104570000000fa002d23a80001e6a900c9e2a90065
:104580000080fa00000006000400fa0010079800fe
:1045900012003700cbe2a80000192000000f7800bd
:1045a00001003700000000001e0fe9000080eb0052
:1045b0009e0f1000fbff3a00cbe2a900001920007b
:1045c000000f780001003700000000001e0fe90016
:1045d0000080eb009e0f1000fbff3a001e009000d1
:1045e0000000e900100798001e009000e10f400055
:0c45f000e8ff3a000080fa00000006001e
:020000040000fa
:0445fc000000fe00bd
:00000001FF
