:020000040000fa
:080000000002040000000000f2
:020000040000fa
:10040000eff02000007f22000001880000000000c3
:100410000c000700e0442700010020001100070045
:10042000000020000000e000020032000000020096
:100430000000000068730200000000000040da00c5
:100440000000fe004440a900e01520000000e0008c
:100450000300320000002000a00188004440a800f2
:100460000000060091018800800078000000eb0089
:1004700015003700e280400032a0b4009101ba00bc
:10048000e280400032a0b4009102ba00e280400055
:1004900032a0b4000002eb00472bde00f507b200eb
:1004a000602ce10004003a000059eb008301e900f0
:1004b000fdff3e00040037006128e100010032002a
:1004c0000082eb00040007001101ba000200e00006
:1004d000e8ff3a00000006003159ba008301e90044
:1004e0000c0032002159ba008301e90008003200f3
:1004f0000400e00003003a00e280400032a0b400b3
:10050000f5ff370011d9ba008301e900faff3a007c
:100510008100e800e180400032a0b4000000060045
:100520000000000000000000800078001104b1000d
:10053000030035009101b10001003c000050a00013
:10054000000006008001eb00020037008171780096
:100550008301e800828f5100fcff3a000000060092
:1005600000037800800178000002eb0001003700f2
:100570008059780084025100820f52000900320035
:1005800064c078000402e8000004e000f8ff3a00cc
:10059000830078008058eb0005804100808f500078
:1005a000fcff3a000600780000000600800078009a
:1005b0001106b100030035009101b10001003c00bb
:1005c0000050a10000000600800078000100370004
:1005d0000000e8001004e000fdff3a0001005000b8
:1005e00000000600800178000001780031407800aa
:1005f000005978000004e000fcff3a000300780096
:1006000000000600040037000204e00001003a0088
:10061000000005000000e80010417800814f510003
:10062000f9ff3a0000000600881f780002047800f5
:1006300036000700080040004f0478000000060064
:100640000000fa00881f7800000478003fb9970086
:10065000ea81570080007800403120003200070016
:10066000800078000000e000020035000040eb0050
:1006700000f47800010078004f0478000080fa0050
:1006800000000600889fbe000004be005074800079
:100690000000e00001003200000001000800e0005e
:1006a00001003a00487480000800be00d70007002f
:1006b000000444001804e00004003a00c0e82000f0
:1006c000407488000004eb00070037000800be00fb
:1006d000e0000700000044001004e00001003200c8
:1006e0000058eb0040748800080078004f04be00fa
:1006f000000006000002b10003003500e005b10073
:1007000001003c0010000500000005008001eb0026
:100710000200370061f079008301e800828f510008
:10072000fcff3a00000006006200fa00889fbe004d
:100730008a9fbe000004be00020578008300780096
:1007400060f92f000f004000d400070088979f0039
:1007500099979f000000eb00a09f9f009a457800aa
:100760000b80fb000000ea00cf04de0050c2b300a3
:1007700080cf5500020032000904780001003700e4
:100780000904e9000800e0000b0034001f90970006
:10079000080178008a0078008f919700030001001b
:1007a00090979f000000e000930032002f98970080
:1007b00000004400a09f9f000905450050c2b300ff
:1007c00080cf5500040032000b04e000e3ff3a0044
:1007d0002f989700890037000000eb00809f9f0052
:1007e000f0979f00e0979f00d0979f00c0979f00d1
:1007f000b0979f00c09f9f0009003700a0e720002e
:100800000080500000004000e1e62000e100780098
:100810004f98970001007000c09f9f000a05e800f4
:100820001a4478008800fb00a0e7200075ff07004d
:10083000800078000000e000f0ff3a00a0c2b300a2
:10084000804f54000e003a00bf8897000180e900f5
:10085000b08f9f0010007800b09f9f000000e00064
:1008600005003d000000ea00b09f9f004f989700f0
:100870000020a000c09f9f000a05e800100037007c
:10088000b19f9f0009003700bf989700f0ff270035
:10089000808f5000040032006a08b9000000410057
:1008a00003004000b09f9f000a05e8001a01fb000a
:1008b00003fd2f0003004100e90f5000f2ff360056
:1008c000e0c2b3009a4f1000040032000080eb0039
:1008d000909f9f008a0478001c0037008a04e8007b
:1008e000a0c2b300994f100007003a00bf889700dc
:1008f0000180e900b08f9f0010007800909f9f005a
:100900008a84e800110037000000eb00909f9f00f0
:10091000090037009f989700f0ff2700808f500054
:10092000040032006a08b9000000410003004000e2
:10093000909f9f008904e8001901fb0003fd2f0030
:1009400003004100e90f5000f2ff3600194478001f
:100950008800fb0000e820002aff07000000e000fc
:1009600002003a0000447800010037008904e800e2
:10097000a87f9f0080c6b300804f540004003a0057
:10098000994f14000a003a006640500006003700f4
:10099000c0c6b300804f540005003a00994f1400c0
:1009a00003003a0065404000a07f9f008904e800f2
:1009b0000905e800cbfb2f008f8545001901fb00de
:1009c00060f92f000f0040000084e8008b017800e0
:1009d0008000780008007800350007000000e00083
:1009e00005003a008b0078000800780073010700ca
:1009f0000000e00059ff3d000080eb004f05be0005
:100a00004f04be000080fa000000060000027800db
:100a10000b00370001017800924178000304e000e8
:100a200002003a00040050000000060083cf52008c
:100a3000020032000201e800f7ff37000000e80082
:100a4000904278000504e000f2ff3a0004005000f4
:100a500000000600000278000700370083cf520034
:100a60000a0032000201e800924178000304e0002d
:100a7000faff3a000000e800904278000504e00028
:100a80000400320001017800f7ff37000400500035
:100a90000000060004005000000006000200fa00fa
:100aa000f1bf9f00010878000080fa0000000600f6
:100ab000889fbe008a1f7800000478000102780039
:100ac0008244780003057800e0c6b300804f5100ef
:100ad000d200320015003c006b405000804f5100a6
:100ae000240032000a003c0070405000804f51004a
:100af0000f01320065404000804f51007400320009
:100b000050c2b300804f510020013a001c01370051
:100b100040c6b300804f51001b00320065404000ca
:100b2000804f510019013a001700370030c7b30059
:100b3000804f5100fe00320007003c00644050002e
:100b4000804f5100620032000040e800804f5100a9
:100b50000e013a00e700370050c7b300804f510044
:100b60005b00320063404000804f510007013a00b3
:100b7000570037009180e900010a78007800900062
:100b80009171780007013700a8609000c0c6b300db
:100b900080cf50000a003a00940078006480500032
:100ba000000a78001000be004f89de00cf91de0001
:100bb0000002be00020378008203780013003700b1
:100bc00010c7b30080cf500003003200a0c6b300ae
:100bd00080cf500006003a009400780068805000f2
:100be000000a78003002be002003be000700370074
:100bf0001480e900000a78001000780000027800f4
:100c0000cfa2de000503780086037800049cbe00b6
:100c10000694be00a860900080c6b30080cf50004c
:100c20000e00320020c6b30080cf500005003a000d
:100c30000400fb00cf80de00010178008201780013
:100c40000a00370040c7b30080cf500003003200d5
:100c50006640400080cf500006003a000400780053
:100c6000cf80de000101780082017800009cbe0088
:100c70000294be003800be002801be00e00f500004
:100c8000e08f5800e00f5900e08f590003003d004d
:100c900078009000d1c2b3000a003700081090001d
:100ca0000018a3000300320078009000b1c2b30026
:100cb000040037000008a3005300320078009000c1
:100cc00001c2b300017578000000e8004d00370054
:100cd000a8609000c0c6b30080cf500006003a0064
:100ce0009400780064805000000a78001002be0072
:100cf0006033b8001300370010c7b30080cf500036
:100d000003003200a0c6b30080cf500006003a00b6
:100d10009400780068805000000a78003002be001d
:100d20002003be00070037001480e900000a7800a5
:100d30001000780000027800050020000600200066
:100d400007002000049cbe000694be00a86090002e
:100d500080c6b30080cf50000e00320020c6b30022
:100d600080cf500005003a000480fb000100200005
:100d700002002000030020000a00370040c7b30033
:100d800080cf5000030032006640400080cf50000a
:100d900006003a0004007800010020000200200054
:100da00003002000009cbe000294be0008109000ca
:100db0000038a300140032003800be002801be0035
:100dc000e00f5000e08f5800e00f5900e08f59000d
:100dd0000d00320080c7b30080cf54000300320002
:100de00080c5b30080cf540007003a00780090001f
:100df00001c3b300017578008000e80009f57800b0
:100e00000080e80070049800780090000000450021
:100e1000600498008940780042003700a860900084
:100e2000c0c6b30080cf5000250032000a003c004d
:100e30006440500080cf50002800320000c0e8001d
:100e400080cf5000140032006840500080cf500026
:100e500022003a000a00370040c7b30080cf50009c
:100e60001e0032006640400080cf50001b00320060
:100e70006940500080cf500018003a00060037004b
:100e80001480e900000a780010007800485c9000a7
:100e900008487800450037001480e900000a78000f
:100ea0001002780068089000cf80de000101780011
:100eb00082017800009abe000292be003b0037001b
:100ec0001480e900000a780010017800680890009a
:100ed000cf80de000089be00340037001480e900b6
:100ee000000a780010007800680c9000080878006c
:100ef0002e0037001180e90080087800100078008b
:100f0000cf80de000101780082017800009cbe00e5
:100f10000294be0078009000000045006004980034
:100f200081c7b30008007800ee0007001f003700fb
:100f30001480e900000a780010007800600498002e
:100f4000580990000200e00002003d009efd0700ed
:100f5000090037008000eb006f0207008000780076
:100f60000000e000030032006800900000805000a4
:100f70000100370058089000100c98000b00370053
:100f80007800900002757800060037007800900025
:100f9000800045000904e00001003a0059c2b30096
:100fa000894878000000e800700498000000eb0019
:100fb0004f0578004f04be00000006000400fa0050
:100fc000889fbe008a9fbe008c1f780000047800b6
:100fd0000106780070089000f800900001005000b1
:100fe000880890000100500098089000010050000f
:100ff000a808900001005000b808900001005000bf
:10100000c8089000810550000002220090bf9f0098
:1010100000032300a0bf9f00081090000028a30039
:1010200018003a000b00e000160034008b04780032
:1010300009057800e28f5400020036002a002000e3
:10104000020037000900e0000b0034005800900057
:10105000c80190000a017800ee80570003000100eb
:10106000500498000000e0009600320068089000ec
:1010700000004500600c98008a8454004240a9009a
:10108000ebff3c00780190000200e0000b00340010
:1010900058009000c80190008c0078000300010007
:1010a000500498000000e0008600320068089000bc
:1010b000f800900001004000600c9800880c90003f
:1010c0000900e0001500340009057800e28f5400a3
:1010d000020036002a002000020037000900e0006c
:1010e0000b00340058009000c80190000a017800fd
:1010f000ec80570003000100500498000000e0005d
:10110000700032006808900000004500600c9800f4
:101110008a8454004240a900ebff3c00180990006b
:101120000200e0000b003400e8009000580090003e
:10113000c801900003000100500498000000e00086
:10114000600032006808900098089000010040009c
:10115000600c9800a80c90000900e0001500340015
:1011600009057800e28f5400020036002a002000b2
:10117000020037000900e0000b0034005800900026
:10118000c80190000a017800ec80570003000100bc
:10119000500498000000e0004a0032006808900007
:1011a00000004500600c98008a8454004240a90069
:1011b000ebff3c00380990000200e0000d00340015
:1011c000e8009000180890008080400058009000cf
:1011d000c801900003000100500498000000e000e6
:1011e0003800320068089000b80890000100400004
:1011f000600c9800c80c90000900e0001500340055
:1012000009057800e28f5400020036002a00200011
:10121000020037000900e0000b0034005800900085
:10122000c80190000a017800ec805700030001001b
:10123000500498000000e00022003200680890008e
:1012400000004500600c98008a8454004240a900c8
:10125000ebff3c00081090000028a3001b003200a8
:101260000b00e000190034008b04780009057800b9
:10127000e28f5400020036002a00200002003700ee
:101280000900e0000b00340058009000c8019000f5
:101290000a017800ee805700030001005004980016
:1012a0000000e000070032006808900000004500e0
:1012b000600c98008a8454004240a9000300340066
:1012c000eaff37000080eb00010037000000eb0070
:1012d0004f0678004f05be004f04be000080fa00a4
:1012e000000006002f03b000889fbe008a9fbe004a
:1012f0008c9fbe008e1f780000077800d0e520008c
:10130000c0b79f0080c5b30080cf500008003200f6
:10131000c2e42000c2b79f007740400080cf500059
:1013200003003a0083002000b3b79f000a00370093
:1013300080c7b30080cf500005003200a400200019
:10134000b4b79f0080c5b30080cf500002003a00c0
:1013500005012000b5b79f003e04be002e05be006b
:1013600040c6b30080cf500003003200654040000b
:1013700080cf50000b003a00e00f5400e08f5c007b
:10138000e00f5d00e08f5d0006003d006000b800ea
:101390006011b80008045000898458000a055900fb
:1013a0008b8559003fb19700e80f510003003200d0
:1013b000f00f510045003a00020037003c002000c9
:1013c000010037004c002000e00f5400e08f5c006b
:1013d000e00f5d00e08f5d0005003a005e089000c0
:1013e00083012000a3b79f000000e0000800320046
:1013f0003fb297000400e90008006000cfb29700f8
:101400006540780090df9f0070012000a0b79f002a
:101410008c0078008100e900050033008b05d100c5
:101420000a85d3008984d3000884d300f9ff3700ec
:10143000089fbe000a97be002fb197000200e90086
:1014400023fc2f008f8141000084410014003700ed
:101450002fb097000000e900a0b79f003fb19700b0
:101460000200e90004006000cfb1970063547800e7
:101470003e00be002e01be000c0278000402e9000e
:10148000050033008381d1000281d3008180d30025
:101490000080d300f9ff3700009fbe000297be0016
:1014a0003e02be002e03be00e00f5200e08f5a0045
:1014b000e00f5b00e08f5b00da0034002fb0970094
:1014c0000000e000e2ff3c00d6003700ae60900074
:1014d00080c6b30080cf50000b00320006003c00f5
:1014e0000104e000080032006640500080cf500048
:1014f00073003a0004003700c0c6b30080cf50002c
:101500006f003a0031003700080178000800e00061
:1015100005003a005e08900081012000a1b79f00fd
:101520000000e00009003200bfb19700110009007f
:101530000381d8008000fd004fb29700644078001e
:1015400090df9f0075012000a5b79f003fb2970074
:10155000110009000481d80080017800afb2970023
:101560000500e90021fc2f008f8040000082400030
:101570000c003700bfb29700110009008501d800a8
:10158000000178002fb097000000e900a0b79f008d
:101590000590b90000805100cfb0970061527800eb
:1015a000820178000300e000030034002fb19700af
:1015b0000200e000efff3c0003007800cf80de0077
:1015c00001017800820178003a0037000806be0069
:1015d000e00f5400e08f5c0005003a005e089000c8
:1015e00083012000a3b79f000000e0000900320043
:1015f0003fb297006121b9000c00be00e600070071
:10160000cfb297006540780090df9f007001200006
:10161000a0b79f003fb297006121b9000c00be0047
:10162000cd0007000006be00afb297000500e9003c
:1016300021fc2f008f8040008080400091b79f00e8
:10164000110037003fb197006114b9000801be00d6
:101650000c00be00d30007000005be00afb197002c
:101660008301e900a3b79f000801be00b400070092
:10167000000056001fb29700cfb297006552780065
:1016800094b79f000a06be00e00f5600e08f5e0090
:10169000030034002fb097000000e000e9ff3c0099
:1016a0004feade00cfa2de000c00be00040178008d
:1016b00084017800009fbe000297be0059003700e9
:1016c000e00f5400e08f5c00e00f5d00e08f5d00f4
:1016d00005003a005e08900081012000a1b79f003c
:1016e0000000e0000d0032003fb1970002027800d8
:1016f000cfa2de0005037800860378000800be0054
:101700000a01be00370107004fb29700644078001d
:1017100090df9f0075012000a5b79f003fb19700a3
:1017200002027800cfa2de0005037800860378006d
:101730000800be000a01be0023010700009fbe0092
:101740000297be00afb197000300e90024fc2f0010
:101750000f0242000006420024003700bfb297008b
:1017600005047800cfc4de00090578008a057800fa
:101770000802be000a03be005fa89700efa897000a
:101780007fa997008fb197001a010700d0b79f007b
:10179000e1b79f00f2b79f0083bf9f002fb0970073
:1017a0000000e900a0b79f000802be000a03be00c7
:1017b0005fb09700efb097007fb197008fb99700a7
:1017c000920107005faa970000005200cfb2970075
:1017d000655678005fb09700efb097007fb1970033
:1017e0008fb99700009fbe000297be003e00be006a
:1017f0002e01be00d0af9f00e1af9f00f2af9f006f
:1018000083b79f00e00f5000e08f5800e00f5900b1
:10181000e08f590003003400afb097000100e000f2
:10182000ceff3c003fb19700e80f510013003a0093
:101830000e1090000038a30010003200afb19700e6
:10184000f78f510006003e0024fc2f000f024200db
:101850008300420000c3b300914f10000700320024
:10186000afb297008502e900a5b79f0000c3b3009f
:1018700021fc2f008f80400080f07a00afb19700ec
:1018800078811100120f98006e00900024fc2f0048
:101890000f024200830042009cfb07001e099000db
:1018a0005e089000800f510006003d0002005000cd
:1018b000000f98000e1090000040a1000017980043
:1018c0000f0037000000e0000d003d000e109000fa
:1018d00074006000f00f500009003a007e0890008c
:1018e000fe009000010050008e08900001005000a2
:1018f000020050004240a90001003400000f98008f
:101900004f0778004f06be004f05be004f04be00d3
:101910002f03b100000006008001eb000400370037
:101920008301e80090cf1000040032000000e800be
:10193000828f5100faff3a000000eb000000060021
:10194000020ab900001bb9000200b8008100420081
:1019500081004300000006006022b800060220005b
:101960000000d0008180d2000482d2008582d200a3
:101970000000a0000202520083825a0003003100de
:101980000202420083824a000000a1000603e9002f
:10199000f3ff3a0000000600efff07000400be005e
:1019a00000000600839f68000100e00002003d0087
:1019b00060001000e08018000300e00002003d001d
:1019c00060011100e0811900e3ff07004f00e00013
:1019d00002003b0060001000e080180000000600dc
:1019e000881f7800000478005001be004000be004f
:1019f00004004000858048000601490087814900b5
:101a0000009cbe000294be000400e1000588e100d5
:101a10000690e1000798e1000200310068004400f0
:101a20001008e8004f04780000000600f487470023
:101a3000889fbe008a9fbe008c9fbe008e1f7800cc
:101a40000205be000004be00d4b79f00e5b79f00aa
:101a5000f6b79f0087bf9f000000eb00c0b79f0054
:101a6000b0b79f00a0b79f0090b79f0080b79f00be
:101a70000d042000bfb097004fb097000001400058
:101a80000000e0000f003d004f08de000000710084
:101a9000c0b79f009e00070001003d00120020001b
:101aa000a100070001003d0012002000a600070071
:101ab000b1000700b60007000f004000c8ff070094
:101ac000220037004f08de0000067100ccb79f00ef
:101ad0008f00070001003d00120020009200070067
:101ae00001003d001200200097000700a20007003f
:101af0000fb297009fb297002fb39700bfb3970024
:101b0000a90007000000520081805a0002015b001a
:101b100083815b0080b79f0091b79f00a2b79f00b1
:101b2000b3b79f000007eb009f0007000020e10013
:101b300001a8e10002b0e10003b8e10001003100ba
:101b40001e0020000e005600c0b79f004fb2970045
:101b50000400e00007003500100020000100200014
:101b60006011b80008047000898470000a057100d3
:101b70008b8571008d06e900beff3a000400e0008d
:101b800003003d00820007000f00400094ff0700a3
:101b90004fa897000000e00004003a000fb497003f
:101ba0009fb497002fb59700bfb59700940007002a
:101bb0004f0778004f06be004f05be004f04be0021
:101bc0004f01b10000000600881f780018002000b7
:101bd000881f780095ff07008f87e9004f04780081
:101be00000000600801feb0090ff07008f87e900d0
:101bf00000000600889fbe008a9fbe008c1f7800f0
:101c00006e00070007003d0073000700e00f5b0057
:101c1000e08f5b0007003d00320007000006eb008c
:101c2000040037003400070002003d002a000700ce
:101c30001c00200072000700e3ff07000203be0043
:101c40000002be000c00e00001003200220007008c
:101c50000400be000601be004f0678004f05be001e
:101c60004f04be0000000600889fbe008a9fbe0091
:101c70008c1f78005100070005003d00560007004a
:101c8000e00f5b00e08f5b0006003d0004003700c2
:101c90001900070003003d006000b8006011b800a3
:101ca0001000070056000700ceff07000203be0029
:101cb0000002be000c00e000010032000600070038
:101cc0000400be000601be004f0678004f05be00ae
:101cd0004f04be00000006006000b8006011b800ac
:101ce00000003700040250008582580006035900a6
:101cf00087835900000006000006eb00e00f520049
:101d0000e08f5a00e00f5b00e08f5b0000000600f0
:101d10000180400090b79f000001eb008fb097005a
:101d20000100e000000006000200700090b79f0074
:101d30000180400080b79f000001eb00ffa89700e2
:101d40000100e000000006000200700080b79f0064
:101d5000018040006faa9700cf20de0001007000d4
:101d6000f0af9f0004024200250007004f18de007c
:101d70000002720000000600e4af9f000804440067
:101d800089844c000a054d008b854d00000006003b
:101d90003fb29700cfb297005fb39700efb39700c1
:101da00000fe2f00000006003fb09700cfb0970064
:101db0005fb19700efb19700000006000205be007a
:101dc0000004be00e00f5000e08f5800e00f590003
:101dd000e08f5900000006006000b8006011b800f4
:101de00008045000898458000a0559008b85590061
:101df0001c002000e00f5200e08f5a000000060097
:101e00000800be000a01be0000000600889fbe0058
:101e10008a9fbe008c1f78000205be000004be0031
:101e20000006eb00e00f5000e08f5800e00f590073
:101e3000e08f590007003d006000b8006011b80055
:101e400008045000898458000a0559008b85590000
:101e50001c002000e00f5200e08f5a00e00f5b00f2
:101e6000e08f5b0002003d000f0007000c00a200a5
:101e70000800be000a01be00120007000203be00f7
:101e80000002be000c00e000010032000600070066
:101e90000400be000601be004f0678004f05be00dc
:101ea0004f04be00000006006000b8006011b800da
:101eb00004025000858258000603590087835900a8
:101ec00000000600889fbe008a9fbe008c9fbe0057
:101ed0000404b8000506b8008904460060854e0079
:101ee0000606b8000a054600e0854e000706b80061
:101ef0008b054600040eb800890446000a854e0092
:101f0000e0854d00050eb8000a0546008b854e00a1
:101f1000060eb8008b0546000416b8000a054600f8
:101f20008b854e000516b8008b054600041eb800d0
:101f30008b0546000800be000a01be004f06be0029
:0c1f40004f05be004f04be00000006006c
:020000040000fa
:020000040001f9
:0457f8008f790000a5
:020000040000fa
:020000040001f9
:0457fc007f3e0000ec
:020000040000fa
:10000800d8740000d8740000d8740000d8740000b8
:10001800d8740000d8740000d8740000d8740000a8
:10002800d8740000d8740000d8740000d874000098
:10003800d8740000d8740000d8740000d874000088
:10004800d8740000d8740000d87400000271000051
:10005800d8740000d8740000d8740000d874000068
:10006800d8740000d8740000d8740000d874000058
:10007800d8740000d8740000d8740000d874000048
:10008800d8740000d8740000d8740000d874000038
:10009800d8740000d87400008a720000d874000078
:1000a800d8740000d8740000d8740000d874000018
:1000b800d8740000d8740000d8740000d874000008
:1000c800d8740000d8740000d8740000d8740000f8
:1000d800d8740000d8740000d8740000d8740000e8
:1000e800d8740000d8740000d8740000d8740000d8
:1000f800d8740000d8740000d8740000d8740000c8
:10010800d8740000d8740000d8740000d8740000b7
:10011800d8740000d8740000d8740000d8740000a7
:10012800d8740000d8740000d8740000d874000097
:10013800d8740000d8740000d8740000d874000087
:10014800d8740000d8740000d8740000d874000077
:10015800d8740000d8740000d8740000d874000067
:10016800d8740000d8740000d8740000d874000057
:10017800d8740000d8740000d8740000d874000047
:10018800d8740000d8740000d8740000d874000037
:10019800d8740000d8740000d8740000d874000027
:1001a800d8740000d8740000d8740000d874000017
:1001b800d8740000d8740000d8740000d874000007
:1001c800d8740000d8740000d8740000d8740000f7
:1001d800d8740000d8740000d8740000d8740000e7
:1001e800d8740000d8740000d8740000d8740000d7
:0801f800d8740000d874000067
:020000040000fa
:10020800d8740000d8740000d8740000d8740000b6
:10021800d8740000d8740000d8740000d8740000a6
:10022800d8740000d8740000d8740000d874000096
:10023800d8740000d8740000d8740000d874000086
:10024800d8740000d8740000d8740000027100004f
:10025800d8740000d8740000d8740000d874000066
:10026800d8740000d8740000d8740000d874000056
:10027800d8740000d8740000d8740000d874000046
:10028800d8740000d8740000d8740000d874000036
:10029800d8740000d87400008a720000d874000076
:1002a800d8740000d8740000d8740000d874000016
:1002b800d8740000d8740000d8740000d874000006
:1002c800d8740000d8740000d8740000d8740000f6
:1002d800d8740000d8740000d8740000d8740000e6
:1002e800d8740000d8740000d8740000d8740000d6
:1002f800d8740000d8740000d8740000d8740000c6
:10030800d8740000d8740000d8740000d8740000b5
:10031800d8740000d8740000d8740000d8740000a5
:10032800d8740000d8740000d8740000d874000095
:10033800d8740000d8740000d8740000d874000085
:10034800d8740000d8740000d8740000d874000075
:10035800d8740000d8740000d8740000d874000065
:10036800d8740000d8740000d8740000d874000055
:10037800d8740000d8740000d8740000d874000045
:10038800d8740000d8740000d8740000d874000035
:10039800d8740000d8740000d8740000d874000025
:1003a800d8740000d8740000d8740000d874000015
:1003b800d8740000d8740000d8740000d874000005
:1003c800d8740000d8740000d8740000d8740000f5
:1003d800d8740000d8740000d8740000d8740000e5
:1003e800d8740000d8740000d8740000d8740000d5
:0803f800d8740000d874000065
:020000040000fa
:101f4c004c430000442d000053440000434100006a
:101f5c0052440000205500004e490000542000005f
:101f6c00746500007374000020730000746100003d
:101f7c00727400006564000000530000746100007e
:101f8c007274000000530000797300007465000047
:101f9c006d00000046610000696c00006564000083
:101fac000053000044200000496e000069740000da
:101fbc00007700000052000054430000432e000044
:101fcc00545800005400000053440000204f0000ff
:101fdc00706500006e000000313000002f310000f1
:101fec00322f0000333100000d0a000000320000d7
:101ffc00333a0000353900003a350000300d00004e
:10200c000a00000072000000446f00006e650000c2
:10201c00005300004420000054650000737400005d
:10202c00000000000095000000000000000000000f
:10203c0001f90000000000000000000009af0000e2
:10204c0000000000010000000a1b0000000000005e
:10205c00010000000cc300000000000000000000a4
:10206c000daf0000020000000000000010ff000097
:10207c00000000000000000011ff00000000000044
:10208c000100000012ff0000000000000100000031
:10209c0018ff0000000000000100000019ff000004
:1020ac00000000000100000020ff00000000000004
:1020bc000000000021ff00000000000000000000f4
:1020cc0026df000001000000000000003773000054
:1020dc0000000000000000003a2500000300000092
:1020ec00000000003b250000000000000000000084
:1020fc0025300000327800002f250000303200001f
:10210c00782f0000253000003278000000250000f8
:10211c0030320000783a00002530000032780000a0
:10212c003a250000303200007800000028530000ef
:10213c00554e000029000000284d00004f4e0000b5
:10214c00290000002854000055450000290000001b
:10215c0028570000454400002900000028540000c6
:10216c004855000029000000284600005249000094
:10217c0029000000285300004154000029000000f1
:10218c009c900000a2900000a8900000ae9000006f
:10219c00b4900000ba900000c09000000003000052
:1021ac000306000001040000060200000500000008
:1021bc00030500002f3a0000000000003031000041
:1021cc003233000034350000363700003839000057
:1021dc004142000043440000454600002e2e000002
:1021ec000020000020200000202000002020000003
:0c21fc0020200000202000000000000057
:020000040000fa
:102208000400fa000000eb00000f78000600370019
:102218009e00780020ca20008080400010c0b300d3
:10222800804878001e0fe800200020009e0f100054
:10223800f7ff34000040eb0044eeb7001f2a070008
:10224800e0d52000340207000004e00036003a0020
:1022580031728000e0d5200080087800317280005b
:102268000000eb00d0009800317280000000eb0005
:10227800e0009800327280006000b8007001980099
:1022880001099800327280006000b80010099800b7
:102298002109980031728000c0c5b300c058980069
:1022a80010002000000f780007003700317280000e
:1022b8001e0078007c0040008100400000c2b3008e
:1022c800804878001e0fe800a00020009e0f100034
:1022d800f6ff3400317280000000eb00c010980057
:1022e8003172800000012000e010980032728000f6
:1022f8008065800091658000701198000119980030
:102308003272800080658000916580001019980005
:10231800211998000040eb00b4ecb7001000200031
:1023280010079800020037000000eb001007980023
:102338001e0090000080fa00000006001400fa0059
:10234800881f780060079800710798000257980066
:10235800135798006e0090004010900050079800a6
:10236800b0002000100798006e00900080189000c0
:10237800701090006e0190001019980021199800b3
:102388007e00900060119000020078000080ea0052
:102398008180ea00300798005e0090000000e000ad
:1023a80009003a00ea00470012c0b3006e0090002e
:1023b8004f0907000000e0000f003a00b0012000bc
:1023c800100798000c0037005e0090006f00600056
:1023d8000000e00008003200ea00470012c0b30025
:1023e8006e009000420907000000e00002003a0079
:1023f800b0012000100798001e009000fb0f50004d
:10240800bb0032001e0090000000e000b80032005f
:10241800ea0047006e0090009c0d070050479800a6
:102428005e409000e24f5000b10032005e409000e4
:102438000004e000a5003a006e009000e010900053
:1024480041079800ce009000f00320000080600053
:10245800400798001e5090000080fb00100f980065
:102468001e0890000000e000040032009e08900062
:10247800e18f50002b003200990037004e00900089
:10248800e80f5000960032000000eb00100798009b
:10249800d0c6b300104798000040eb0040479800b2
:1024a8001c0037004e4090000080fb00ee009000ba
:1024b8007c00400001004000104078001047980060
:1024c8004e4090000080fb00fe0090007c00400021
:1024d8000100400010407800004f78001e40900036
:1024e8000080fb000ef80700000478001e80fb0047
:1024f8000bf80700800f540003003200b0002000e2
:1025080010079800760037004e4090000040e80021
:10251800404798004e409000ea4f5000e1ff3600d7
:102528006f0037004e009000be0090000100600070
:102538000000e0006a003a004e009000ef0f5000e3
:10254800670032000000eb0010079800d0c6b30007
:10255800104798007e009000c0589000a0c2b300b9
:1025680080cf5000280032000040eb004047980020
:10257800220037004e4090000080fb00ee009000e3
:102588007c0040000100400010407800104798008f
:102598004e4090000080fb00fe0090007c00400050
:1025a8000100400010407800004f7800a0c2b3003e
:1025b8009e4f100014003200f0c3b3009e4f10006d
:1025c8000b0032001e4090000080fb00d4f707008b
:1025d800000478001e80fb00d1f70700800f54002c
:1025e80003003200b00020001007980006003700f2
:1025f8004e4090000040e800404798004e40900050
:10260800e74f5000dbff36007e009000c06090006e
:10261800a0c2b30080cf5000310032001e009000ed
:102628000000e0002e003a0080c0b3004047980048
:10263800220037004e4090000080fb00ee00900022
:102648007c004000010040001040780010479800ce
:102658004e4090000080fb00fe0090007c0040008f
:102668000100400010407800004f7800a0c2b3007d
:102678009e4f10001a003200f0c3b3009e4f1000a6
:102688000b0032001e4090000080fb00a4f70700fa
:10269800000478001e80fb00a1f70700800f54009b
:1026a80003003200b0002000100798000c0037002b
:1026b8004e4090000040e800404798004e4090008f
:1026c800ea4f5000dbff3600050037000e5090003f
:1026d8000004e00002003a000000eb001007980038
:1026e8005e0090000000e8005007980045ff3700a2
:1026f8001e0090004f0478000080fa0000000600d9
:102708001200fa005007980061079800624f98007d
:102718000000eb00000f78005e0090009000780049
:10272800410798004e009000505890000004e000c7
:1027380003003a0070002000000f78008500370081
:102748005e00900080189000701090005e0190006c
:1027580010199800211998006e0090001000780058
:102768000000e00009003a0012c0b300ee0090003b
:102778005e0090005e0807000000e00010003a00cc
:10278800b0012000000f78000d0037006e009000a7
:10279800100078006f0060000000e00008003200c0
:1027a80012c0b300ee0090005e00900050080700d1
:1027b8000000e00002003a00b0012000000f78009d
:1027c800ee0090005e009000b00c07006047980093
:1027d8006e4090000004e00003003200b0002000ca
:1027e800000f78005b0037005e0190006000b800c1
:1027f80070019800010998005e009000a000900008
:10280800100090005e01900030019800410198008e
:10281800de0090000000eb00d0009800de00900081
:102828000000eb00e00098006e409000e14f50007f
:1028380003003a00b0002000000f7800280037009d
:102848005e00900030019000c00190004e009000a2
:10285800de110700100798002107980042cebf003c
:102868000004e00006003200c51307000004e00081
:102878000300320090002000000f98003700370056
:10288800de009000e1718800f27180000372800020
:102898001e009000ae009000800f5100818f5900fb
:1028a8000f0032000040eb0044eeb7004e009000ed
:1028b800100178001e009000ae0090003329070038
:1028c8000004e00002003a0080002000000f7800b9
:1028d8001e009000ae009000f07188000172880020
:1028e800de009000310890000020a100b008980098
:1028f800ee48900070c7b30080cf5000040032004b
:10290800ee48900010c6b30080cf500009003a008e
:10291800de009000310890000000a000b008980088
:10292800de009000310890000010a100b008980067
:1029380008003700de009000310890000000a10078
:10294800b0089800de009000310890000010a00048
:10295800b00898009e007800010f98000e089000bb
:102968000080fa00000006001c00fa00200f980002
:10297800320f9800430f98000040eb002047980062
:102988002e089000100f78001e0078004058900024
:102998000080fb00500f98005e089000e10f500087
:1029a8000d0032005e099000e30f51000100320073
:1029b8001200370080ff2f00f1ff20002007980049
:1029c80031079800f0ff2f00f1ff20004007980022
:1029d800510798001100370080ff200001002000f7
:1029e8002007980031079800f0ff2f000100200011
:1029f80040079800510798000800370080ff2f0013
:102a0800010020002007980031079800f0ff2f00f0
:102a18000100200040079800510798002e089000f8
:102a280030019000c0019000620798007307980079
:102a38006e019000fe0190001e00780079170700d3
:102a4800000f9800110f98000e0990009e09900041
:102a58004e009000de009000800f5100818f5900d9
:102a680003003a0080c0b3002047980013003700e5
:102a78001e00780020099000b00990000e08900010
:102a88009e089000800f5100818f590002003e007f
:102a9800a0c0b300204798000e0990009e0990003e
:102aa8002e009000be009000800f5100818f5900c9
:102ab80002003900c0c3b300204798002e089000d8
:102ac8000e0990009e09900032009800430098007b
:102ad8003e089000ce08900061005000e080580049
:102ae800300f9800410f98003e089000ce089000e3
:102af800e00f5000e08f5800030032002e40900095
:102b08000004e000c5ff32002e4090000080fb006a
:102b18000080fa00000006000400fa001007980080
:102b28000040eb00004f78009e0090000040eb0052
:102b3800d05898009e0090000080200080087800ff
:102b4800bd290700e14f50000500320060c0b30006
:102b5800004f780060c0b300b4ecb7000d00370038
:102b68001e0090000e000700004f78001e04e000d1
:102b780008003a001e009000df000700004f7800b0
:102b88001e04e00003003a009e00900010c0b3004d
:102b9800d05898001e80fb000080fa000000060054
:102ba8000e00fa00300798000040eb00304798000c
:102bb8003e009000100178006000b80073280700fc
:102bc800e14f50000500320080c0b3003047980044
:102bd80080c0b300b4ecb700c10037003e009000dd
:102be80010007800000f78001e007800e0f89300cd
:102bf80050c5b30080cf500069003a001e0078002d
:102c0800f0f89300a0cab30080cf500064003a00e7
:102c18003e0090001000780061032000ae1007000d
:102c28008040780060c4b30080cf50002a003a008a
:102c38003e0090001000780071032000a6100700e5
:102c48008040780010c4b30080cf500022003a00c2
:102c58003e00900010007800810320009e100700bd
:102c68008040780040c5b30080cf50001a003a0079
:102c78003e00900010007800910320009610070095
:102c88008040780010c3b30080cf500012003a0093
:102c98003e00900010007800610220008e100700ae
:102ca8008040780090c2b30080cf50000a003a00fc
:102cb8003e0190006000b8001001980021019800c2
:102cc800be00900020c0b300c05898000000eb0080
:102cd80050079800850037003e00900010007800eb
:102ce800210520007c1007008040780060c4b300f4
:102cf80080cf50002a003a003e0090001000780073
:102d080031052000741007008040780010c4b3001b
:102d180080cf500022003a003e009000100078005a
:102d2800410520006c1007008040780040c5b300c2
:102d380080cf50001a003a003e0090001000780042
:102d480051052000641007008040780030c3b300ac
:102d580080cf500012003a003e009000100078002a
:102d6800210420005c1007008040780090c2b30066
:102d780080cf50000a003a003e0190006000b80081
:102d88001001980021019800be00900030c0b300e7
:102d9800c05898008000eb00510798005300370096
:102da8003e00900010007800200798002e00900048
:102db800e0f8930050c5b30080cf500005003a00fa
:102dc8002e009000f0f89300a0cab30080cf500006
:102dd8000500320040c0b300b4ecb70040c0b300f7
:102de800304798003e003700ae00900061c0930065
:102df8000082fb0071c093000080fb004800dd00ea
:102e0800040070000001780001c893000082fb00f4
:102e180011c893000080fb004800dd00040070002a
:102e2800800178003e00900012009800230098006e
:102e38002e009000a0c09300214798002e409000db
:102e48000080fb00400798004e009000ee0f5000f5
:102e58001f003e0010002000ce0090000100dd00a1
:102e68006007980000052400ee00900000806000d4
:102e78000000e0000e003a0000802100ee00900003
:102e8800008060000000e0000d003a00ee009000b5
:102e9800628060000000e00001003a000c0037008a
:102ea800be00900010c0b300c05898000c00370056
:102eb800be00900020c0b300c0589800080037003a
:102ec800be00900030c0b300c0589800040037001e
:102ed80050c0b300b4ecb70050c0b30030479800fe
:102ee8003e4090000080fb00500798005e00900074
:102ef8000080fa00000006001800fa00200f980071
:102f08000040eb00604798002e0890001001780000
:102f18002e089000a0009000100090009b2707004a
:102f2800e14f50000500320080c0b300b4ecb70098
:102f380080c0b30060479800e90037002e08900071
:102f480010007800200798002e009000e0f8930009
:102f580050c5b30080cf500005003a002e00900005
:102f6800f0f89300a0cab30080cf500005003200eb
:102f780030c0b300b4ecb70030c0b300604798006d
:102f8800d70037002e08900010007800e1002000dc
:102f9800da0f0700000f78002e0890001000780064
:102fa800d1002000cc0f0700804078002e08900048
:102fb800315898002e08900010019000a001900050
:102fc8001e007800010020000200400083804800b5
:102fd8002e09900030019800410198002e089000b9
:102fe8001000780001012000bb0f07008040780026
:102ff8002e089000215898002e08900010007800a4
:1030080061012000bd0f0700800078002e089000a5
:10301800410898002e089000400890000000e00049
:1030280007003a002e0890001000780041022000a6
:10303800cc0f0700800078002e0890004108980007
:103048002e08900030019000c00190002e089000da
:10305800205890008080fb002e08900040089000c7
:103068000088b90001002000020040008380480069
:103078002e09900050019800610198002e089000d8
:1030880010007800110120009c0f070080007800d4
:103098002e089000110898002e0890001000780063
:1030a80031012000950f07000100200060079800fb
:1030b800710798006e009000fe009000e00f50002d
:1030c800e08f580006003a002e08900010007800a3
:1030d80001022000a30f07006007980071079800fd
:1030e8002e08900010007800b1002000830f070020
:1030f800100798001e0090000000e0000400320055
:103108001e009000610060000004e000050032002d
:1031180030c0b300b4ecb70030002000300f980086
:10312800720037002e08900010089000c500dd00de
:103138001e009000008040000000e9001e01900081
:10314800110009000280d80001002000000f98003b
:10315800110f98002e089000205890008080fb00e6
:103168002e089000400890000088b9001e0040001a
:103178006101b8000e0890009e089000020140000e
:10318800838148006e009000fe009000020050000d
:103198008380580040079800510798002e08900037
:1031a800305890000081fb00030020004e00900082
:1031b800de009000e6f907002e099000200998002b
:1031c800310998002e08900020099000b00990005d
:1031d80040ff200001002000800f5100818f59001e
:1031e80004003e00ae08900010c0b300c05898001c
:1031f8000f0037002e08900020099000b0099000b9
:1032080040ff2f0001002000800f5100818f5900de
:1032180004003e00ae08900020c0b300c0589800db
:1032280003003700ae08900030c0b300c0589800c3
:103238002e08900040589000e34f500011003a00cb
:103248002e08900010007800c1022000450f0700ea
:1032580080658800916588002e08900050019000d4
:10326800e00190000e0890009e08900002004000c7
:10327800838048002e099000700198000109980089
:103288000f0037006000b8008065880091658800ed
:103298002e08900050019000e00190002e08900048
:1032a800100890004400de000100200002004000e9
:1032b800838048002e099000700198000109980049
:1032c8009e00900000202000808f500004003200f3
:1032d80030c0b3006047980030c0b300b4ecb7000a
:1032e8006e4090000080fb00300f98003e08900070
:1032f8000080fa00000006000600fa002007980087
:103308006000b800008fbe002e00900020089000da
:1033180001002000008fbe001e00be00c000dd00be
:1033280000002000008fbe002e0090005008900082
:10333800010020001e1f70001e9770001e00be00b6
:103348000080fa00000006001400fa0050079800f8
:103358006107980072079800030f98006000b80092
:1033680020079800310798005e009000ee0090005a
:10337800e00f5000e08f5800070032007e019000f7
:103388008e0990001000200001002000800f5100dd
:10339800818f590003003e000080eb00100f980059
:1033a8001b0137007e0090008e08900061015000dc
:1033b800e08158005e009000ee009000800f510000
:1033c800818f5900030031008080eb00110f9800b5
:1033d8000f01370042cebf000004e00006003200b3
:1033e800e71007000004e000030032000081eb0052
:1033f800120f9800060137000080200002202000ec
:103408008000eb004df40700008020004007980082
:103418005e009000ee009000008fbe001e00be000f
:1034280012ec23000300200049f907004e09dd00d3
:10343800c200de00810071004e00dd002007980008
:10344800310798001e00be0012ec23000300200084
:103458004ff90700008fbe001e00be00f2032000d7
:10346800030020003af907004609dd00ca01de0022
:10347800830171004601dd002e009000be0090001f
:1034880002007000838070002007980031079800c0
:103498001e00be00f2032000030020003cf90700d4
:1034a800008fbe0010002000010020003e014000f7
:1034b800ae8148002e009000be009000020070000f
:1034c8008380700020079800310798002e00900034
:1034d800be0090004008de0001002000bfe9b700f0
:1034e8002e009000be0090004809dd004800de0074
:1034f80000007100c808de00c0e9b7002e00900087
:10350800c1e9b7007e0190008e0990005e0090002e
:10351800ee0090000001510081815900ce0090001a
:10352800f00f20000002610021c893006040600095
:1035380004407000a0c89b004812de0031c8930008
:103548006040600004407000b0c89b00f00f20008d
:103558000082610041c89300604060000440700030
:10356800c0c89b004819de0051c893006040600045
:1035780002407000d0c89b00ce00900021c8930084
:103588000082fb0031c893000080fb004800dd008a
:10359800040070000001780041c893000082fb001d
:1035a80051c893000080fb004800dd000400700053
:1035b800800178008003210001002000800f510065
:1035c800818f590004003e00ce00900010c0b30067
:1035d800a0c09b001b003700ce00900021c89300bc
:1035e8000082fb0031c893000080fb004800dd002a
:1035f800040070000001780041c893000082fb00bd
:1036080051c893000080fb004800dd0004007000f2
:1036180080017800f0d52f00f1032000800f5100c1
:10362800818f590004003e00ce00900060c0b300b6
:10363800a0c09b00030037008081eb00130f9800a7
:1036480073003700ce0090005e019000f00f20005c
:103658000001610061c0930060406000024070009a
:10366800e0c09b005e0090004801de0071c093003e
:103678006040600002407000f0c09b006e01900046
:10368800f00f20000001610001c893006040600055
:103698000240700080c89b006e0090004801de0068
:1036a80011c89300604060000240700090c89b0001
:1036b8005e019000ee0190007e0090008e08900060
:1036c80002004000838048000081eb008081eb000d
:1036d800021f4000039748001e00be0012ec2300a2
:1036e800030020009af80700ce09dd00c200de00c2
:1036f800818071004e00dd00200798003107980096
:103708001e00be0012ec230003002000a0f80700f2
:10371800008fbe001e00be00f20320000300200040
:103728008bf807004609dd00ca01de00830171003d
:103738004601dd002e009000be00900002007000df
:103748008380700020079800310798001e00be0093
:10375800f2032000030020008df80700008fbe0050
:1037680010002000010020003e014000ae8148000a
:103778002e009000be009000020070008380700050
:1037880020079800310798002e009000be00900096
:103798004008de0001002000c3e9b7002e009000b9
:1037a800be0090004809dd004800de0000007100fe
:1037b800c808de00c4e9b7002e009000c5e9b700cc
:1037c800ce0090000040eb00e0789b00ce00900017
:1037d80050c5b300e0f89b00ce009000a0cab3002b
:1037e800f0f89b0013c0b300028020006000b8000e
:1037f800d7250700e14f5000030032008081eb001d
:10380800130f9800020037000000eb00100f98001b
:103818001e0890000080fa00000006005600fa001a
:10382800407f9800721f980003279800112798007e
:103838007e004700600798000040eb00b4ecb7003a
:10384800ee00900000802000800878009b2407008c
:1038580079260700e14f50000500320060c0b30030
:10386800b4ecb7000080eb00402798004403370011
:10387800028020006000b800442507000004e00032
:1038880005003a00b0c1b300b4ecb7008080eb008b
:10389800412798003a0337006e0090001000780026
:1038a800700798007e009000e0f8930050c5b300c0
:1038b80080cf50005d003a007e009000f0f8930041
:1038c800a0cab30080cf500058003a006e009000a4
:1038d80010007800610320007f0d07008040780009
:1038e80060c4b30080cf50003c003a006e009000e6
:1038f8001000780071032000770d070080407800e1
:1039080010c4b30080cf500034003a006e0090001d
:1039180010007800810320006f0d070080407800b8
:1039280040c5b30080cf50002c003a006e009000d4
:103938001000780091032000670d07008040780090
:1039480010c3b30080cf500024003a006e009000ee
:1039580010007800610220005f0d070080407800a9
:1039680090c2b30080cf50001c003a004e789000ff
:103978000000fb00302798003e2190000200e00084
:1039880009003200be219000e18f51000100320091
:1039980026003700f0c1b300b4ecb7000082eb009a
:1039a80044279800f60237006e0090006011b800b6
:1039b80012009800230098006e0090004efd07004a
:1039c8000004e00019003200b0c1b300b4ecb70045
:1039d8000080eb0040279800e902370000802000b3
:1039e800600f9800ee08900061c093000082fb0011
:1039f80071c093000080fb004800dd0004007000e7
:103a08000001780001c893000082fb0011c89300f0
:103a18000080fb004800dd00040070008001780091
:103a28006e00900012009800230098004e789000d5
:103a38000000fb0020279800ae2090000100e00065
:103a4800f80132002e219000e10f510001003200f0
:103a5800fd013700ee08900021c893000082fb00aa
:103a680031c893000080fb004800dd0004007000ae
:103a78000001780041c893000082fb0051c8930000
:103a88000080fb004800dd00040070008001780021
:103a9800420f9800530f98004e099000de099000dd
:103aa8008003210001002000800f5100818f590000
:103ab80026003e00ee00900010c0b300c0589800e9
:103ac800ee08900010c0b300a0c09b0013c0b30064
:103ad800028020006000b8001d2507000004e000f7
:103ae80005003a0090c0b300b4ecb7008081eb0049
:103af80043279800a20237004e099000de09900083
:103b08007002210001002000800f5100818f5900b0
:103b180004003600ee00900020c0b300b0589800b2
:103b280003003700ee00900010c0b300b0589800b2
:103b380000802000022020008000eb007ff20700b8
:103b480020c3b3003ae8b7004e0037004e09900092
:103b5800de099000f0d52f00f1032000800f5100fe
:103b6800818f590042003e00ee00900020c0b30053
:103b7800c0589800ee08900060c0b300a0c09b0039
:103b880013c0b300028020006000b800f0240700d2
:103b98000004e00005003a0090c0b300b4ecb700a0
:103ba8000082eb0044279800750237004e09900008
:103bb800de09900080de2f00f1ff2f000200400098
:103bc80083804800200f9800310f9800ee00900085
:103bd80010c0b300b05898000d0037006e00900078
:103be800305890000080fb000000400080407800c2
:103bf8006e009000315898002e089000be08900082
:103c08008100d1000080d300200f9800310f980068
:103c18002e099000be099000d0fe2f000100200060
:103c2800800f5100818f5900ecff3e006e0090001c
:103c3800b058900000c8b30080cf5000050036008f
:103c480040c0b300b4ecb7000080eb0040279800f8
:103c58004b02370000802000022020008000eb008b
:103c680036f2070060c3b3003ae8b7000500370032
:103c780070c1b300b4ecb7008080eb004127980016
:103c88003f0237006e009000305890000080fb0023
:103c9800000040006101b9004e089000de08900065
:103ca8000201400083814800f0fd2f00f1ff2f0042
:103cb80002004000838048003007980041079800c0
:103cc8006e00900040589000e14f50000a003a0002
:103cd8006e009000305890008080fb005015200046
:103ce8000088b9000080e800cf80de001007980047
:103cf80021079800080037006e00900030589000a7
:103d08000080fb004800dd000080e800cf80de0076
:103d180010079800210798001e019000ae0190003e
:103d28003e009000ce0090000200400083804800d2
:103d380061005000e08058001e019000ae01900024
:103d480003f707003007980041079800b0ceb3008a
:103d580000e8b700c0c3b30001e8b70000c9b3006a
:103d680002e8b700d0c4b30003e8b70030c4b3001a
:103d780004e8b70080c4b30005e8b70000c5b30085
:103d880006e8b70000c2b30007e8b70060c4b30094
:103d980008e8b70010c4b30009e8b70040c5b3008d
:103da8000ae8b7000040eb000be8b70020c0b300fa
:103db8000ce8b7006e009000305890000de8b7008e
:103dc80080c0b3000ee8b7000040eb000fe8b70072
:103dd8006e009000a0009000100090006800400065
:103de800e08048006e019000300198004101980081
:103df80020c0b30010e8b700ee00900020c0b30068
:103e0800a05898000040eb0011e8b70020c0b300ac
:103e180012e8b700ee0090000020200090089800fb
:103e28000040eb0013e8b7000040eb0014e8b700cf
:103e380080cfb30015e8b7003e00900016e8b70041
:103e48003e009000ce0090004809dd004800de00ea
:103e580000007100c808de0017e8b700be00900037
:103e68006e00900041089800f0c3b30018e8b7004e
:103e78000040eb0019e8b70000c0eb001ae8b700f3
:103e88000040eb001be8b7006e009000a000900017
:103e9800100090001ce8b7006e009000a000900091
:103ea80010009000c809dd004800de0000807100a5
:103eb800c808de001de8b7006e009000a000900062
:103ec800100090004008de00010020001ee8b70046
:103ed8006e009000a0009000100090004808de00de
:103ee800010020001fe8b7004e08900020e8b70046
:103ef8004e089000de089000480add004800de0009
:103f080000007200c808de0021e8b7004e089000e3
:103f1800de0890004008de000100200022e8b7001b
:103f28004e089000de0890004808de0001002000de
:103f380023e8b7000040eb0024e8b7000040eb009e
:103f480025e8b70090c2b30026e8b7007e189000b5
:103f58008040780000c0eb0000c0600027e8b70090
:103f68007e1890008e2090005027980061279800b6
:103f78005e209000ee209000e00f5000e08f580087
:103f880006003d005e219000ee219000f20fb00087
:103f98000380b00052279800632798005e219000a4
:103fa800ee219000481add004810de000000720083
:103fb800c898de008040780000c0eb0000c06000b8
:103fc80028e8b7007e1890008e209000702798008f
:103fd800012f98007e2090008e289000e00f50005e
:103fe800e08f580008003d00f0ff2f00010020007e
:103ff8007e2190008e2990000201400083814800b4
:1040080072279800032f98007e2190008e29900037
:104018004098de00cf80de008040780000c0eb00d2
:1040280000c0600029e8b7007e1890008e2090003c
:10403800102f9800212f98001e289000ae2890007d
:10404800e00f5000e08f580008003d00f0ff2f00ff
:10405800f10f20001e299000ae29900002014000b7
:1040680083814800122f9800232f98001e29900062
:10407800ae2990004898de00cf80de0080407800ae
:1040880000c0eb0000c060002ae8b7001e209000c6
:104098000000e000270032000040eb00004f7800ed
:1040a8000d0037001e80fb00b20220000001410015
:1040b8001e80fb00800078001e20900000804000d9
:1040c8001040780080407800008020000000410007
:1040d800014878001e4fe8001e80fb008000780031
:1040e8001e20900000804000104078000004e0008e
:1040f8000c003200a3c0b3009ecf1100e9ff3600c8
:10410800080037001e80fb00b102200080804000bc
:10411800008020008080400000c2b3008048780002
:104128001e4fe800a4c0b3009e4f1200f5ff3600f2
:104138000e0037000040eb00004f78000800370001
:104148001e80fb00b102200080804000008020001b
:10415800808040000040eb00804878001e4fe80057
:10416800a0c0b3009e4f1000f5ff360060c4b30036
:1041780036e8b70010c4b30037e8b70040c5b3004d
:1041880038e8b70010c3b30039e8b70000c2b3007d
:104198003be8b70000c2b3003ce8b70000c2b30078
:1041a8003de8b70050c5b300fee9b700a0cab300a8
:1041b800ffe9b7006e00900030019000c001900048
:1041c8006e009000205890008080fb006e009000e8
:1041d800400890000088b90001002000020040005b
:1041e800838048006e01900050019800610198009a
:1041f8006e009000a0009000100090008041eb003d
:1042080002802000522307000004e00013003a0057
:1042180090c0b300b4ecb7008080eb004127980051
:10422800d70037006e00900033fb07000004e00061
:104238000a003200b0c1b300b4ecb7000081eb0053
:1042480042279800ce003700f0c1b300b4ecb700a5
:104258008081eb0043279800c900370000802000c8
:10426800022020008000eb00b4f0070080cfb300ec
:1042780000e8b70000c0eb0001e8b70000c0eb00a1
:1042880002e8b7006e00900040589000e24f5000de
:1042980002003a0000c0eb0003e8b7006e0090008f
:1042a800205890000080fb000000e90050079800ab
:1042b800150037006e00900030019000c00190009a
:1042c8006e009000c00890005e0090000088b90061
:1042d8000100200002004000838048008041eb007c
:1042e800028020001a2307000004e00003003a00bf
:1042f8000082eb0044279800a10037005e00900080
:104308000000e900500798005e009000e10f4000af
:10431800e8ff3a006000b8000040880011408800bb
:104328006e009000c000900030009000004fe80040
:104338001c0037006e009000205890000080fb00a1
:104348000000e90050079800120037001e81fb00aa
:104358006e009000c00890005e0090000088b900d0
:1043680000004100010020008041eb000280200095
:10437800f72207000004e00003003a000080eb0089
:10438800402798007e0037005e0090000000e9009a
:10439800500798005e009000e10f4000ebff3a00e4
:1043a8001e4fe8001e4078000082fb000500200038
:1043b8006e00900030019000c00190006e009000e7
:1043c800400890000100200002004000838048005f
:1043d800800f5200818f5a00d6ff39006e0090007e
:1043e800100890004500dd00f01fb0004900de0015
:1043f80001002000000f9800110f980010c0b300b2
:10440800004f7800110037006e00900050019000b6
:10441800e00190001e4078000080fb0001002000b1
:1044280002004000838048008041eb0002802000a9
:10443800c72207000004e00003003a008080eb0078
:10444800412798004e0037001e4fe8001e407800b4
:104458000081fb00030020000e0890009e089000d9
:10446800800f5100818f5900e7ff39001e2090000e
:104478000000e000350032000040eb00004f7800fb
:104488000b0037001e81fb001e80fb0080007800b7
:104498001e20900000804000104078008040780086
:1044a8000080200000004100014878001e4fe8000d
:1044b8001e80fb00800078001e20900000804000d5
:1044c800104078000004e0000a003200a2c0b300e7
:1044d8009e4f1100ebff3600060037009e80fb0060
:1044e800008020008080400000c2b300804878002f
:1044f8001e4fe800a3c0b3009ecf1100f7ff36009f
:1045080080c0b3000be8b70010c1b30011e8b700d2
:1045180010c1b30013e8b70010c1b30017e8b70023
:104528006e009000e0009000500090008041eb0089
:1045380002802000862207000004e0000e003a00f6
:104548000082eb00442798000d0037006e009000b1
:10455800e0009000500090008041eb0002802000b5
:104568007b2207000004e00003003a000080eb0013
:1045780040279800020037008000eb004127980090
:104588004e2090000080fa00000006001200fa0099
:1045980060079800710798006e00900090007800fe
:1045a800510798006e00900010199000a019900013
:1045b800028fbe007e009000100078004400de00ec
:1045c800004f98005e009000405890000080fb006b
:1045d800000f98008e099000e18f51001f003500f0
:1045e8000e089000e20f50000e0034008e08900074
:1045f800e38f500001003200180037005e00900081
:10460800b05890000e4890000080fb000181fb002c
:10461800110009000280d8008000fd00004f9800ba
:104628000e0037008065800091658000be0f100085
:10463800ae8f1800090032005e009000b05890005c
:104648000e4890000080fb000181fb00110009006a
:104658000280d8008000fd00004f98001e01be00b7
:104668005e009000590a070020079800310798005b
:104678005e009000100278000e4890000081fb0058
:10468800030020002e009000be00900002004000b1
:10469800838048008041eb00040178002c22070049
:1046a8000004e00003003a000040eb00104f9800bf
:1046b8000200370010c0b300104f98001e48900049
:1046c8000080fb000080fa00000006001800fa00d5
:1046d80070079800010f9800120f98000000eb0077
:1046e800000f78001e089000405890000080fb00e2
:1046f800300f98003e089000e20f50001000320082
:10470800be089000e38f5000040032003e0890007d
:10471800e10f5000130032001a003700f0ff2f009d
:10472800f1ff2000100798002107980080ff2f0054
:10473800f1ff20003007980041079800110037006a
:10474800f0ff2f00010020001007980021079800b3
:1047580080ff2f00010020003007980041079800d3
:1047680008003700f0ff2f00010020001007980014
:104778002107980080ff20000100200030079800e2
:10478800410798007e0090008e089000e00f5000ce
:10479800e08f5800070032007e0190008e099000db
:1047a8001000200001002000800f5100818f590067
:1047b8003d003a0020002000000f78003c00370040
:1047c8007e0190008e0990001e08900015100700c9
:1047d80050079800610798005e019000ee01900074
:1047e8001e009000ae009000800f5100818f59008c
:1047f80003003a0010002000000f78002a0037005c
:104808005e009000ee009000e00f5000e08f58002e
:10481800070032005e019000ee01900010002000b9
:1048280001002000800f5100818f590003003a00d9
:1048380020002000000f78001b0037005e01900068
:10484800ee0190003e009000ce009000800f5100d5
:10485800818f59000200390020002000000f7800e5
:104868008040eb006022b8007e0190008e09900025
:104878001e089000bf1107000001be001e00900036
:10488800ae009000800f5100818f590002003a005d
:1048980010002000000f78005e009000ee009000ed
:1048a80070079800010f98001e00e000c4ff320056
:1048b80011c0b3006022b8006011b8001e08900053
:1048c800ac110700210020009e8f100003003a0061
:1048d80010002000200f9800020037008000eb0035
:1048e800210f98002e0890000080fa0000000600b2
:1048f8002000fa00300f9800410f9800225f9800be
:104908003e08900090007800110f98003e08900033
:104918007011900080199000520798006307980062
:104928003e08900010199000a019900012079800f6
:10493800230798004e089000100078004400de001d
:10494800104798001e089000405890000080fb0017
:10495800700f9800fe099000e18f51002700350084
:104968007e089000e20f500012003400fe0890000c
:10497800e38f500001003200200037001e0890002d
:10498800b05890001e4090000080fb000181fb00a1
:10499800110009000280d8008000fd00104798002f
:1049a80080ff2f00f1ff2000300798004107980092
:1049b800120037005e009000ee009000e00f5000fb
:1049c800e08f5800090032001e089000b05890008f
:1049d8001e4090000080fb000181fb0011000900cf
:1049e8000280d8008000fd001047980080ff2f004b
:1049f8000100200030079800410798002e589000c9
:104a08000004e00005003a004e089000100078000d
:104a18006f0060000000e00097003a001e40900020
:104a28000004e00004003a004e08900010007800ee
:104a3800ef0f500003003e002e5890000004e000e5
:104a4800290032005e009000ee009000e00f500058
:104a5800e08f580004003a006000b8001007980082
:104a680021079800200037002e5890000004e0002d
:104a78000a0032004e089000900078001e0890004e
:104a8800305890000080fb004401dd00110009004f
:104a98008280d800004f78001100370010c0b300a2
:104aa800004f78000e0037001e019000ae01900004
:104ab8001e0890005b0f0700100798002107980058
:104ac8001e019000ae0190003e009000ce009000c4
:104ad800800f5100818f5900030031001e4fe900fb
:104ae8001e04e000f0ff3a001e019000ae019000a5
:104af8003e009000ce009000800f5100818f590039
:104b0800580031003e0890001e019000ae01900050
:104b180012189800231898001e019000ae0190000a
:104b28001e0890002909070070079800010f9800d7
:104b380082658000936580001e009000ae009000a2
:104b4800820f5000838f580014003a001e409000d6
:104b58000081fb00030020007e0090008e0890007a
:104b680002014000838148001e08900080089000e0
:104b780070009000800f5100818f590007003900a4
:104b88001e08900040589000e34f50000300320088
:104b98000000eb00200f98004000370042cebf0015
:104ba8000004e00006003200f50a07000004e000f7
:104bb800030032008001eb00630f980039003700d2
:104bc8000000eb00e07188000040eb0044eeb70005
:104bd8001e089000100278001e4090000081fb0023
:104be800030020007e0090008e0890000200400024
:104bf800838048000401780064200700e14f5000da
:104c0800030032000000eb00200f9800100037006e
:104c18002e5890000004e0000a0032001e089000a0
:104c280010007800800078004e089000100078008e
:104c38006f0060004500dd0000804000200f9800f4
:104c4800030037001e08900010007800200f98001d
:104c58000080eb008080eb00f07188000172880012
:104c68000e00370010c0b30043eeb7000000eb00a1
:104c7800200f9800090037001e08900010007800e7
:104c8800800078004e089000100078006f006000e7
:104c98004500dd0000804000200f98002e0890009d
:104ca800600f98006e0890000080fa00000006006f
:104cb8001400fa0070079800010f98002257980016
:104cc8000000eb00000f78000040eb00b4ecb700e8
:104cd8000040eb00204798000d0037002e40900060
:104ce8000081fb002e4090000080fb00fe00900039
:104cf8007c004000010040009040780063004700bd
:104d0800017178002e4090000040e800204798008c
:104d18002e409000ea4f5000f0ff36000e08900039
:104d28008000eb00010878008e0890007e0090005b
:104d38005c0007000004e0000d003200e3004700bb
:104d4800ae5190000e0990007e009000df00070031
:104d58000080fb00000f78001e00e00006003a000b
:104d68007e00900009000700000f7800020037005d
:104d780040012000000f78001e007800b4ecb70056
:104d88001e0078000080fa00000006001400fa00f7
:104d9800700798007e00900040109000600798000f
:104da800e80047007e009000b10707003007980030
:104db8003e0090000000e00037003a00ec00470099
:104dc8007e009000dc030700000f78004e00900082
:104dd800de009000800078001e00780051089800de
:104de8004e009000de00900002002000f3ff20003b
:104df80000027800810278000200780083007800c1
:104e080000016200018062006102b800040f98008e
:104e1800150f98000e0890009e089000c000dd0055
:104e280000002000000f9800110f98000e08900055
:104e38009e0890006112b800040f9800150f9800a2
:104e48000e0990009e099000020070008380700097
:104e580010079800210798001e009000ae009000ef
:104e68004008de0001002000100798002107980084
:104e78009e0090001e00780021089800ec00470072
:104e88007e009000c1fd0700e14f50000200320093
:104e980090002000300798003e0090000080fa0043
:104ea800000006001200fa006007980071079800d9
:104eb80010c0b300204f98006e009000801890003a
:104ec800701090006e019000101998002119980038
:104ed80012c0b300fe0090006e00900084fe070030
:104ee800000f78001e00e00067003a00b0c1b30070
:104ef800204f98006a0037000040eb00104f9800e0
:104f08007e00900090007800310798000041eb0087
:104f1800fe0090006e00900075fe0700000f7800fc
:104f28001e00780010407800004f98007e00900026
:104f3800100078008000e8007e00900001087800ea
:104f48000e489000fb4f4000030032000e489000ce
:104f58000004e00008003a001e00e00006003200ed
:104f68001e4890000040e800104f98001e4890002e
:104f78000004e000e5ff32001e00e0003a003a00bd
:104f88006e00900010199000a01990001207980068
:104f98002307980082658000936580001e009000ba
:104fa800ae009000820f5000838f58001b003a001b
:104fb8006e0090001000780040589000e34f5000b9
:104fc8000300320020c0b300204f98002e003700a5
:104fd8006e0090001e019000ae0190003200980013
:104fe8004300980011c0b3006e0090005a010700fa
:104ff800f54f500003003a0020c0b300204f98003e
:10500800210037007e009000be0190000308780060
:105018000040eb00204f98001b0037006e00900006
:105028001e019000ae0190003200980043009800e5
:1050380011c0b3006e00900047010700f54f500003
:1050480003003a0020c0b300204f98000e0037003c
:105058007e009000be019000030878000040eb003d
:10506800204f9800080037001e489000e14f50007c
:1050780005003a000040eb00204f98007e009000a9
:10508800be009000010878002e489000e14f5000c3
:1050980099ff32007e0090003e01900002087800df
:1050a8002e4890000004e00003003a00130020009e
:1050b800030f9800020037000000eb00000f980073
:1050c8000e0890000080fa00000006000e00fa00aa
:1050d800200798003107980042079800234f98004e
:1050e8000040eb00204798002e00900080189000a8
:1050f800701090002e019000101998002119980046
:1051080012c0b300ce0090002e009000f8fd0700fa
:10511800000f78001e00e00003003a00b0012000f4
:10512800600798005e0037003e009000800078001d
:105138001e007800b200200007ed07002e489000fe
:10514800f24f500004003a009e00780000c1b300fe
:10515800b0489800030037009e00780000c2b300f2
:10516800b04898009e0078000040eb00c0489800c6
:105178009e0078000000eb00a00898009e007800d0
:105188000000eb00d00898001e0178006000b8000d
:1051980060099800710998004400070051ca20006e
:1051a800914078001e0078005148980031658000d1
:1051b8001e00780071009800416580001e0078008c
:1051c800010898002e489000f24f50000a00320063
:1051d800516580001e007800110898006165800004
:1051e8001e00780031089800716580001e00780064
:1051f80041089800090037009e0078000000eb0085
:10520800900898009e0078000000eb00b008980015
:105218009e0078000000eb00c00898001e0078008f
:10522800f0089000600890002e0190001009980086
:10523800210998001e007800f00090002e009000d0
:10524800410898001e007800800890002e00900009
:10525800510898001e007800304890008080fb00bc
:105268002e009000611098004e0090009000780089
:105278002e00900041109800ce0090002e00900063
:10528800c2fc0700e14f50000200320090c0b3009a
:10529800204798002e4090000080fb00600798008f
:1052a8006e0090000080fa00000006000e00fa0070
:1052b80027c6bf00614060000004e0000300320020
:1052c80010c0b300004f7800020037000040eb0028
:1052d800004f780027c6bf00624060000004e0006d
:1052e8000300320010c0b3001047980002003700d6
:1052f8000040eb00104798002706a8002726a800c2
:105308002031800060079800203180005007980005
:105318002031800040079800203180003007980035
:1053280010c0b3009e4f100001003a002706a800e5
:105338001e409000e14f500001003a002726a800c7
:105348000000eb00200798006e009000ef0060005e
:105358002e0090000100400020079800ee00900009
:10536800000f2000008060004400de006a00b900e1
:10537800800078002e00900001004000200798006f
:105388002e00900074004000200798002e00900026
:105398004900dd00100798005e0090004c00de0018
:1053a800610060000004e00003003200a00020005b
:1053b80020079800020037000000eb002007980043
:1053c800de00900000f0200000806000c800de00d1
:1053d8002e00900001004000200798002e00900049
:1053e8004500dd00200798009e0090002e009000e8
:1053f8000080700010079800de009000000f200069
:10540800008060004400de00200798002e00900015
:105418006a00b900200798005e009000ef00600065
:105428002e00900001004000200798009e00900088
:105438002e00900000807000100798001e00900059
:10544800406588001e009000706588001e0090006e
:1054580050658800ce009000000f2000008060009a
:105468004400de006a00b900200798004e00900052
:10547800ef0060002e009000010040002007980017
:105488002e0090004b00dd0010079800be00900031
:1054980000002f00008060004c00de006a00b900a8
:1054a80020079800be00900000f0200000806000f7
:1054b800c800de002e009000010040002007980080
:1054c8002e009000c500dd001e0090000100700055
:1054d80010079800be009000000f200000806000b8
:1054e8004400de006a00b900200798003e009000e2
:1054f800ef0060002e009000010040002007980097
:105508002e009000610060000004e00003003200fb
:1055180040c6b300a5ecb700020037000040eb001e
:10552800a5ecb7002e0090000000d10020079800dd
:105538009e0090002e0090000080700010079800d8
:105548001e009000306588001e009000606588008d
:105558000080fa00000006001000fa0050079800ca
:10556800414f98005e009000900078004107980035
:105578005e00900030019000c00190002207980062
:10558800330798005e009000470007002007980046
:10559800310798002e009000be009000e00f5000e8
:1055a800e08f580003003a00530120007307980069
:1055b8003a0037004e00900040589000e14f5000ec
:1055c80008003a008040eb0084ff2000050020001e
:1055d8002e019000be0190004e009000650e07005d
:1055e800130037004e00900040589000e24f5000e2
:1055f80008003a008040eb0084ff2f0005002000df
:105608002e019000be0190004e009000590e070038
:10561800070037008040eb0084ff2f00f5ff2000d3
:105628002e019000be0190004e009000510e070020
:105638005e00900030019000c0019000028fbe0013
:105648008040eb002e029000be0290001e01be00ba
:105658004e009000470e07005e0090002e0190005b
:10566800be01900032009800430098004e48900018
:10567800e14f500007003a002e019000be01900053
:105688004e009000d00507000080fb0070079800ce
:10569800020037008001eb00730798007e0090003d
:1056a8000080fa00000006001a00fa00300f980087
:1056b8006000b800000f9800110f98003e08900095
:1056c80090007800210f98003e089000300190006b
:1056d800c001900062079800730798002e08900098
:1056e800405890000080fb00400f9800ce099000c1
:1056f800e28f51000f0032004e089000e30f500077
:1057080004003200ce089000e18f500011003200f2
:105718001700370070ff2f00f1ff200020079800c6
:1057280031079800f0ff2f00f1ff2000008fbe0026
:105738000f00370070ff2f0001002000200798009d
:1057480031079800f0ff2f0001002000008fbe00f5
:105758000700370070ff2000010020002007980094
:1057680031079800f0ff2f0001002000008fbe00d5
:105778006e019000fe019000100020000100200042
:10578800800f5100818f590004003e002000200046
:105798000100200060079800710798006e019000d2
:1057a800fe01900042079800530798006e01900090
:1057b800fe0190002e0890001a0c070038003700f0
:1057c8006e019000fe0190002e089000150c070055
:1057d800000f9800110f98000e0890009e08900086
:1057e800be0f5000ae8f580004003a006000b800a9
:1057f80060079800710798002e0037000e08900087
:105808009e089000e00f5000e08f580029003200f9
:105818006e009000fe00900061004000e0804800ab
:1058280060079800710798000e0990009e09900083
:105838002e009000be009000800f5100818f59000b
:10584800080032002e08900020099000b00990004e
:105858006e009000fe009000800f5100818f59006b
:1058680004003e002000200001002000600798008e
:10587800710798006e019000fe0190004e009000a4
:10588800de009000800f5100818f590004003a001b
:105898006000b8006007980071079800050037009d
:1058a8006e009000fe009000e00f5000e08f58005e
:1058b800c3ff3a006e009000fe0090000080fa00de
:1058c800000006000c00fa00400798008004200041
:1058d800100798000040eb00b4ecb7004e009000b1
:1058e80040109000300798004e009000300890005b
:1058f800610060000000e0004100320042cebf00bd
:105908000004e000080032009d0707000004e000e2
:105918000500320090c0b300b4ecb7000080eb0083
:1059280050079800560037004e009000100078008d
:1059380011c0b3006022b8006011b8008d0d0700d7
:10594800e60047004e009000fb000700000f7800bb
:105958001e00e00007003a00b0c1b300b4ecb70085
:105968000080eb00100798001e0090005007980078
:10597800430037004dfe0700616580001e00780077
:1059880031089800716580001e0078004108980071
:10599800000000004e009000a00890001008900041
:1059a8001e01780060099800710998004e00900067
:1059b80060109000804078001e0078003148980000
:1059c800e60047004e009000f0fa07000004e000ef
:1059d800030032000000eb001007980004003700b5
:1059e80090c0b300b4ecb7000080eb00100798003b
:1059f800ce009000310890000000a100b008980087
:105a08000000eb002007980012003700ae0090005d
:105a1800600320000088b9008000780000c02000e2
:105a2800808040004e009000808f500006003a00b1
:105a3800ae00900020ca20008080400010c0b30053
:105a480080487800060037002e0090000000e8002b
:105a5800200798002e009000e20f5000ebff360060
:105a68009e00900080042000808f500002003a00c1
:105a78000000eb00100798001e00900050079800e7
:105a88005e0090000080fa00000006000c00fa009a
