:020000000D28C9
:10000800FF0003088312ED000408EE000A08EF0061
:10001800C4293E3084004E30182083177530840080
:100028007D3018208301202864008001840A04069A
:100038000319003404061928703083168F0019300C
:100048008500073083129900293083169F0081307C
:1000580083129F007F30831692000630831292002D
:10006800403093000C309500FE228B170B30522144
:1000780027305221F3309F050D30D600D60B422889
:1000880083129F149F18462883121E08D5008316D2
:100098001E088312D4000C309F040D30D600D60BF6
:1000A800532883129F149F18572883121E08D300C1
:1000B80083161E088312D2000A30D900DA015408C8
:1000C800463ED70055080318013EFF3ED800CF2210
:1000D8005808D1005708D0005108D8005008D70058
:1000E8001F30D900DA0113225808CF005708CE0074
:1000F8000230DB000330DC003E30D900DA01520860
:10010800853ED70053080318013ED80084225808BA
:10011800DA005708D9004F08D8004E08D7003D30FC
:0801280052210130E8223E28BB
:10020000FE00FE1F082983137E18831700080800CC
:100210000408FE0001308A007E08820700340134A1
:1002200000340A34003464340034E83403341034C5
:10023000273454346834653472346D346F346D341B
:100240006534743465347234203461346E3464340B
:10025000203448347934673472346F346D34653403
:100260007434653472340A340034543465346D3473
:100270007034653472346134743475347234653476
:100280002C34483475346D346934643469347434CE
:1002900079340A340034253464342C3425346434FD
:1002A0000A340034DC005730DE00BC295F08253AF0
:1002B00003195D295F081123BC29DD015C08DC0AF4
:1002C0000921DF00003A03190800643A031D0D3AC2
:1002D000031DBC295E08840083130008E000840A23
:1002E0000008E100DE0ADE0AE11F7D290330DD049B
:1002F000E009E109E00A0319E10ADF01DF0A03105E
:100300005F0D013EE5000921E400E50A65080921C9
:10031000E5006102031D8E2964086002031C952913
:10032000DF0A5F08053A031D7F295D0803390319B9
:100330009B292D3011235F08DB00B92903105B0DC9
:10034000013EE4000921E800E40A64080921E9000B
:100350006108E7006008E60059226708E7006608C0
:10036000E6000A30E800E901AF226608303EDF000F
:100370001123DB035B0F9E295C08DC0A0921DF00E7
:10038000DF080319080056290B1D0A2A3B3081009B
:100390000B11FD0BF629FD0AE5298519F629023016
:1003A000F429851DF329F601F629F60110307702AC
:1003B0000318F6297C083E3E8313840078088000E9
:1003C000FC0A0F30FC05F70AF6297608003A0319F3
:1003D000CD29013A0319D1290B3A0319D529031064
:1003E00085190314F80C0430FD00F60AF908031906
:1003F0000A2A79080339031D092A751C022A831267
:100400008516042A8312851275107A187514031440
:10041000FA0CF9036F088A006E0884006D088300E7
:10042000FF0E7F0E0900DC01DA1F1D2AD909DA0947
:10043000D90A0319DA0ADC01DC0AD81F262AD709EF
:10044000D809D70A0319D80A0130DC06DD01DE011C
:100450005A08590403194C2ADB01DB0A0310DA1B82
:10046000352AD90DDA0D2D2A0310DD0DDE0D5A08BF
:100470005802031D3D2A59085702031C482A5908EF
:10048000D7025A08031CD803D8020130DD04031038
:10049000DA0CD90CDB0B342ADC080319542ADD09E9
:1004A000DE09DD0A0319DE0A5E08D8005D08D70000
:1004B0000800EB01EC016908680403197F2AEA01CE
:1004C000EA0A0310E91B682AE80DE90D602A031007
:1004D000EB0DEC0D69086702031D702A68086602BF
:1004E000031C7B2A6808E6026908031CE703E7028D
:1004F0000130EB040310E90CE80CEA0B672A6C08E6
:10050000E7006B08E6000800DF01E001DD01DE0125
:10051000A12A5908DF070318E00A5A08E0075C0817
:100520006002031D952A5B085F02031CA12A5B0879
:10053000DF025C08031CE003E002DD0A0319DE0AA7
:100540008F2A0130D702031CD803570A0319580A0F
:10055000031D892A5E08D8005D08D70008006908D5
:10056000680403190800EA01EA0AE91BBB2A031020
:10057000E80DE90DB42A69086702031DC12A68085D
:100580006602031CCA2A6808E6026908031CE7031E
:10059000E7020310E90CE80CEA0BBB2A0800DB01B8
:1005A000DC01571CD92A5908DB070318DC0A5A0852
:1005B000DC070310D90DDA0D0310D80CD70C58083E
:1005C0005704031DD12A5C08D8005B08D700080037
:1005D000D700FA2AD8011A30DA00F830D900D90B3E
:1005E000EF2ADA0BEF2A64008312D80A643058022B
:1005F000031CEB2AD703570FEA2A0800F601FD0176
:10060000FD0AFC01FB01F7010730990083168512F2
:100610008515803081003930831281000B118B16D3
:100620000800E600F908031D122B75106608FA0091
:060630002C30F900080067
:084000000F0006000800030098
:02400E00C430BC
:00000001FF
