:0600000000308A00112807
:10000800FF00030883120313B1000408B2000A08B2
:10001800B3007E08B4008A111D2983177430840048
:100028007E308A111B208A1183018A1123286400DB
:100038008001840A04060319003404061C28703061
:10004800831603138F008A11F1218A118A11EA227B
:100058008A11831203130B178B1732288C1D35282E
:1000680036283228372883160313141E3C283D28C7
:1000780037288A11CF228A11831203138230A100F4
:10008800DD30A000A00B4628A10B46284B283628B7
:040098008A11112890
:10020000FE00FE1F082983137E18831700080800CC
:100210000408FE0001308A007E08820700345F3443
:100220000C34D6349E348D349B34DB340E34DF34BE
:100230009F3401344034203408340B1D20292129F7
:100240004A290B117C080B3E8A1109218A11FF3AB9
:10025000B0003008860506110130B0003008FC07F8
:100260000330B0003008FC057C08773E84000008AD
:1002700085007C08773E8400801E3F294029412963
:1002800006157C080B3E8A1109218A11B00030083E
:1002900086049C298C1D4D294E299C298C1183167E
:1002A0000313941A5429552972298312031313082E
:1002B000B0003008FB00831603131419602961296C
:1002C0006929031083120313003003180130FD0065
:1002D00071290310831203130030031801309300B7
:1002E00014169C29141C752976298F290330831232
:1002F00003137D0203187D297E298A291308B00083
:100300007D08743E8400300880000130B000300861
:10031000FD078E291308B0003008FB009C298312CA
:100320000313141E9429952996299C290310003043
:1003300003180130930014163408FE0033088A00B5
:100340003208840031088300FF0E7F0E0900003060
:10035000AD000030AE002B082A040319B029B129E2
:10036000E929AC010314AC0DC02901300310AA0D1A
:10037000AB0DFF3E031DB6290130AF002F08AC07BF
:10038000AB1FC329C429B52901300310AD0DAE0D33
:10039000FF3E031DC5292B082902031DD1292A0868
:1003A0002802031CD429D529DC292A08A8022B08F5
:1003B000031CA903A9022D1401300310AB0CAA0CD5
:1003C000FF3E031DDD290130AC02031DE829E929A8
:1003D000C4292D08A801A8072E08A901A907F029FA
:1003E000080007309C00403083120313A2008316DC
:1003F0000313831203132208831603139B0584300F
:1004000081000310831203130030031801308500AC
:100410000310831603130030031801308500031006
:100420008312031300300318013086009230A200BB
:1004300083160313831203132208831603138605FE
:10044000031083120313003003180130FC00C03086
:10045000A2002208FA00DC30A2002208F9009D3038
:10046000A2002208F8002430A2002208F7008B1610
:1004700008000310003003180130A6003F2A0A309C
:10048000AA000030AB002408A801A8072508A9018C
:10049000A9078A117A228A11831203132808013EC0
:1004A0008A1109218A11A70026088313773E840048
:1004B000270880000A30AA000030AB002408A801F9
:1004C000A8072508A901A9078A11A7218A11831263
:1004D00003132808A401A4072908A501A5070130D2
:1004E000A7002708A60704302602031C782A792AC9
:1004F0003F2A08002B082A0403197F2A802AB02AE1
:10050000AC010314AC0D8F2A01300310AA0DAB0D02
:10051000FF3E031D852A0130AD002D08AC07AB1F3F
:10052000922A932A842A2B082902031D992A2A0831
:100530002802031C9C2A9D2AA32A2A08A8022B0809
:10054000031CA903A90201300310AB0CAA0CFF3E47
:10055000031DA42A0130AC02031DAF2AB02A932A3E
:10056000B12A0800A400DF30A5002508F705DF3018
:10057000A5002508F805DF30A5002508F905DF30BE
:10058000A5002508FA05043024020318C82AC92A40
:10059000CE2A24088313773E840080160800831235
:1005A00003137408A200A301083084000310A20DF5
:1005B000A30D840BD62A75082204A4002308A500E5
:1005C0008A1139228A118312031376088A11B22202
:1005D0008A1108000310831203130030031801303E
:1005E000FD0083160313861406160310003003184B
:1005F00001309400A6309300363083120313940028
:0A0600008C11831603138C150800FB
:084000000F000F00080008008A
:04400E00102FFC3F34
:00000001FF
