:020000040000fa
:080000000002040000000000f2
:020000040000fa
:100400008f882000007f220000018800000000008b
:100410000c00070080682000010020001100070088
:10042000000020000000e000020032000000020096
:10043000000000005e060200000000000040da003c
:100440000000fe004440a900000020000000e00081
:100450000300320000002000a00188004440a800f2
:100460000000060091018800800078000000eb0089
:1004700015003700e280400032a0b4009101ba00bc
:10048000e280400032a0b4009102ba00e280400055
:1004900032a0b4000002eb00472bde00f507b200eb
:1004a000602ce10004003a000059eb008301e900f0
:1004b000fdff3e00040037006128e100010032002a
:1004c0000082eb00040007001101ba000200e00006
:1004d000e8ff3a00000006003159ba008301e90044
:1004e0000c0032002159ba008301e90008003200f3
:1004f0000400e00003003a00e280400032a0b400b3
:10050000f5ff370011d9ba008301e900faff3a007c
:100510008100e800e180400032a0b4000000060045
:100520000002b10003003500e005b10001003c000d
:080530001000050000000500a9
:020000040000fa
:020000040001f9
:0457f8008f790000a5
:020000040000fa
:020000040001f9
:0457fc007f3e0000ec
:020000040000fa
:100008009006000090060000900600009006000090
:100018009006000090060000900600009006000080
:100028009006000090060000900600009006000070
:100038009006000090060000900600009006000060
:1000480090060000900600009006000014030000cf
:100058009006000090060000900600009006000040
:100068009006000090060000900600009006000030
:100078009006000090060000900600009006000020
:100088009006000090060000900600009006000010
:1000980090060000900600009c04000090060000f6
:1000a80090060000900600009006000090060000f0
:1000b80090060000900600009006000090060000e0
:1000c80090060000900600009006000090060000d0
:1000d80090060000900600009006000090060000c0
:1000e80090060000900600009006000090060000b0
:1000f80090060000900600009006000090060000a0
:10010800900600009006000090060000900600008f
:10011800900600009006000090060000900600007f
:10012800900600009006000090060000900600006f
:10013800900600009006000090060000900600005f
:10014800900600009006000090060000900600004f
:10015800900600009006000090060000900600003f
:10016800900600009006000090060000900600002f
:10017800900600009006000090060000900600001f
:10018800900600009006000090060000900600000f
:1001980090060000900600009006000090060000ff
:1001a80090060000900600009006000090060000ef
:1001b80090060000900600009006000090060000df
:1001c80090060000900600009006000090060000cf
:1001d80090060000900600009006000090060000bf
:1001e80090060000900600009006000090060000af
:0801f8009006000090060000d3
:020000040000fa
:10020800900600009006000090060000900600008e
:10021800900600009006000090060000900600007e
:10022800900600009006000090060000900600006e
:10023800900600009006000090060000900600005e
:1002480090060000900600009006000014030000cd
:10025800900600009006000090060000900600003e
:10026800900600009006000090060000900600002e
:10027800900600009006000090060000900600001e
:10028800900600009006000090060000900600000e
:1002980090060000900600009c04000090060000f4
:1002a80090060000900600009006000090060000ee
:1002b80090060000900600009006000090060000de
:1002c80090060000900600009006000090060000ce
:1002d80090060000900600009006000090060000be
:1002e80090060000900600009006000090060000ae
:1002f800900600009006000090060000900600009e
:10030800900600009006000090060000900600008d
:10031800900600009006000090060000900600007d
:10032800900600009006000090060000900600006d
:10033800900600009006000090060000900600005d
:10034800900600009006000090060000900600004d
:10035800900600009006000090060000900600003d
:10036800900600009006000090060000900600002d
:10037800900600009006000090060000900600001d
:10038800900600009006000090060000900600000d
:1003980090060000900600009006000090060000fd
:1003a80090060000900600009006000090060000ed
:1003b80090060000900600009006000090060000dd
:1003c80090060000900600009006000090060000cd
:1003d80090060000900600009006000090060000bd
:1003e80090060000900600009006000090060000ad
:0803f8009006000090060000d1
:020000040000fa
:100538000000fa00c902a900c922a800816c2000a5
:100548009140780000ceb30000c060003040b30096
:10055800c8e6b700416a20009140780000ceb30099
:1005680000c060009040b300a4e6b7007006200009
:1005780040118800008028000011880000402000f9
:1005880010118800910a200091407800f0c8b3004b
:1005980000c0600001c4b30001407000a9e0b700ca
:1005a8008560a9009560a8000080fa000000060098
:1005b8000200fa00004f780000c8bf00f34f500057
:1005c800fdff320023c2bf00624060000004e0006b
:1005d800fcff3a001e00fb00201188000080fa0092
:1005e800000006000200fa00000f7800040037003f
:1005f8001e007800104078001e0fe800ecff07008e
:100608001e007800104078000004e000f8ff3a006f
:10061800a0c0b300e6ff07000080fa000000060053
:1006280000a0fe000200fa008560a90030118000d9
:10063800004f780010c1b3009e4f10000300320035
:1006480030c1b3009e4f100003003a001e407800ee
:1006580000e8b7001e003700318420009140780080
:1006680000c4b30080cf50001900320041c8bf0059
:100678008080fb0010802000008040001e48780029
:1006880041c8bf000040e80041e8b70041c8bf00ca
:10069800f043b20041e8b70043c8bf000040e8009b
:1006a80043e8b700318420009140780000c3b300cc
:1006b80080cf500006003a0023c2bf0062406000ad
:1006c8000004e000fcff3a003001200020118800ff
:1006d8000080fa000080fe00004006000000fa00da
:1006e80043c8bf000080fb000080fa00000006003d
:1006f8000200fa00f9ff07000004e000fdff3200e5
:100708009560a90042c8bf008080fb0010802000cf
:1007180000804000104f780042c8bf000040e80049
:1007280042e8b70042c8bf00f043b20042e8b70051
:1007380043c8bf000040e90043e8b7003184200007
:100748009140780000c3b30080cf500006003a0003
:1007580023c2bf00624060000004e000fcff3a00d2
:1007680010012000201188009560a8001e00fb00e1
:100778000080fa00000006000600fa001007980042
:10078800414798000040eb00004f780023003700f5
:100798001e409000e94f500002003a0000c2b3002a
:1007a800104798001e409000e84f50000a003a0099
:1007b8001e04e000080032001e4fe90080c0b300ac
:1007c8007bff070000c2b30079ff070080c0b300b9
:1007d80077ff0700110037001e4090000000fb0063
:1007e8004dff07000000e0000c0032004e40900072
:1007f8009e4f1000090031001e80fb008000780029
:100808001e009000008040009e4090000148780043
:100818001e4fe8001e40900065ff0700b4ff070068
:10082800104798001e409000ea4f5000d8ff3a0049
:100838001e80fb00800078001e0090008080400031
:100848000040eb0080487800a0c0b30058ff0700c4
:100858000080fa00000006000000fa00c942a90062
:10086800c962a800a16c20009140780000ceb300b6
:1008780000c060005040b300cae6b700616a2000bb
:100888009140780000ceb30000c06000b040b300d3
:10089800a6e6b70070062000c01188000080280076
:1008a800801188000040200090118800310b200042
:1008b8009140780080cfb30000c060000024a00001
:1008c800b3e0b70087c0a90097c0a8000080fa006d
:1008d800000006000200fa00004f780033c2bf0093
:1008e800624060000004e000fcff3a001e00fb00cc
:1008f800a01188000080fa00000006000200fa003b
:10090800000f7800040037001e00780010407800bf
:100918001e0fe800efff07001e0078001040780067
:100928000004e000f8ff3a000080fa00000006002a
:1009380000a0fe000200fa0087c0a900b0118000e4
:10094800004f7800718820009140780000c4b300ff
:1009580080cf50000e00320085c8bf008080fb00a9
:1009680050842000008040001e48780085c8bf00e1
:100978000040e80085e8b70085c8bf00f043b20032
:1009880085e8b70087c8bf000040e80087e8b700df
:100998000080fa000080fe00004006000000fa0017
:1009a80087c8bf000080fb000080fa000000060036
:1009b8000200fa00f9ff07000004e000fdff320022
:1009c80097c0a90086c8bf008080fb005084200023
:1009d80000804000104f780086c8bf000040e80043
:1009e80086e8b70086c8bf00f043b20086e8b700c3
:1009f80087c8bf000040e90087e8b70097c0a80093
:100a08001e00fb000080fa00000006000600fa0045
:100a180010079800414798000040eb00004f78000d
:100a2800230037001e409000e94f500002003a00b2
:100a380000c2b300104798001e409000e84f5000d5
:100a48000a003a001e04e000080032001e4fe900c8
:100a580080c0b3009fff070000c2b3009dff0700de
:100a680080c0b3009bff0700110037001e409000b4
:100a78000000fb00a8fe07000000e0000c003200a8
:100a88004e4090009e4f1000090031001e80fb0070
:100a9800800078001e009000008040009e4090007a
:100aa800014878001e4fe8001e40900089ff0700ab
:100ab800bfff0700104798001e409000ea4f500003
:100ac800d8ff3a001e80fb00800078001e009000ce
:100ad800808040000040eb0080487800a0c0b30050
:100ae8007cff07000080fa00000006000000fa0002
:100af8002c83a8002ca3a800f01f2000a0108800b9
:100b080000002800b01088000080fa0000000600ed
:100b18000000fa00b0108000ff00600019c2bf009a
:100b28000080fb004600de00614060000080fb00a2
:100b3800008070000000e000f6ff3a000080fa0034
:100b4800000006000000fa00f1ff07001602a800e6
:100b58000080fa00000006000000fa00ecff070021
:100b68001622a8000080fa00000006000000fa0023
:100b7800e7ff07001642a8000080fa000000060000
:100b88000200fa00004f7800e1ff0700801f78009c
:100b98001e40780012e2b7004f007800dcff070023
:100ba80019c2bf000080fb004700de000080fb0088
:100bb8000080fa00000006000400fa0020479800b0
:100bc800d3ff07001662a800d1ff070010c2bf00bc
:100bd800004f78002e409000614060006140600046
:100be8004501dd006121200091407800f0cdb3007f
:100bf80000c060000240700016e2b7001682a8002c
:100c08001e80fb000080fa00000006000200fa00c7
:100c1800000f78000b003700000000000000000003
:100c280000000000000000000000000000000000bc
:100c380000000000000000000000000000000000ac
:100c4800000000001e0fe9000080eb009e0f10005e
:100c5800f1ff3a000080fa00000006000200fa00e6
:100c6800000f780002003700803e2000e7ff0700f1
:100c78001e0fe9000080eb009e0f1000faff3a00fb
:100c88000080fa00000006000200fa00000f780059
:100c980002003700803e2000f0ff07001e0fe90029
:100ca8000080eb009e0f1000faff3a000080fa0067
:100cb800000006000200fa000000eb00203a88005d
:100cc8008aff07000000eb00000f780010002000ea
:100cd800edff07009bff070060cab300a8ff0700ed
:100ce8001e0078004800de00a5ff07001e007800ff
:100cf8001e0fe800a2ff070040c0b300a0ff0700d6
:080d08009aff0700f1ff37001c
:020000040000fa
:100d10000008000088000000000000000000000043
:020000040000fa
:040d20000000fe00d1
:00000001FF
